{
  "contractName": "EMRContract",
  "abi": [
    {
      "constant": true,
      "inputs": [
        {
          "name": "",
          "type": "address"
        }
      ],
      "name": "patients",
      "outputs": [
        {
          "name": "client",
          "type": "address"
        },
        {
          "name": "fullname",
          "type": "string"
        },
        {
          "name": "dob",
          "type": "string"
        },
        {
          "name": "sex",
          "type": "uint8"
        },
        {
          "name": "marital",
          "type": "uint8"
        },
        {
          "name": "email",
          "type": "string"
        }
      ],
      "payable": false,
      "stateMutability": "view",
      "type": "function"
    },
    {
      "constant": true,
      "inputs": [
        {
          "name": "",
          "type": "uint256"
        }
      ],
      "name": "appointments",
      "outputs": [
        {
          "name": "index",
          "type": "uint256"
        },
        {
          "name": "patient",
          "type": "address"
        },
        {
          "name": "datetime",
          "type": "uint256"
        },
        {
          "name": "stat",
          "type": "uint8"
        },
        {
          "name": "remark",
          "type": "string"
        }
      ],
      "payable": false,
      "stateMutability": "view",
      "type": "function"
    },
    {
      "constant": true,
      "inputs": [],
      "name": "MedicalReportIndex",
      "outputs": [
        {
          "name": "",
          "type": "uint256"
        }
      ],
      "payable": false,
      "stateMutability": "view",
      "type": "function"
    },
    {
      "constant": true,
      "inputs": [],
      "name": "version",
      "outputs": [
        {
          "name": "",
          "type": "string"
        }
      ],
      "payable": false,
      "stateMutability": "view",
      "type": "function"
    },
    {
      "constant": true,
      "inputs": [],
      "name": "owner",
      "outputs": [
        {
          "name": "",
          "type": "address"
        }
      ],
      "payable": false,
      "stateMutability": "view",
      "type": "function"
    },
    {
      "constant": true,
      "inputs": [],
      "name": "AppointmentIndex",
      "outputs": [
        {
          "name": "",
          "type": "uint256"
        }
      ],
      "payable": false,
      "stateMutability": "view",
      "type": "function"
    },
    {
      "constant": true,
      "inputs": [
        {
          "name": "",
          "type": "uint256"
        }
      ],
      "name": "medicalreports",
      "outputs": [
        {
          "name": "docname",
          "type": "string"
        },
        {
          "name": "docpath",
          "type": "string"
        },
        {
          "name": "docdesp",
          "type": "string"
        },
        {
          "name": "isActive",
          "type": "bool"
        }
      ],
      "payable": false,
      "stateMutability": "view",
      "type": "function"
    },
    {
      "constant": true,
      "inputs": [
        {
          "name": "",
          "type": "address"
        }
      ],
      "name": "administrator",
      "outputs": [
        {
          "name": "",
          "type": "bool"
        }
      ],
      "payable": false,
      "stateMutability": "view",
      "type": "function"
    },
    {
      "inputs": [],
      "payable": false,
      "stateMutability": "nonpayable",
      "type": "constructor"
    },
    {
      "anonymous": false,
      "inputs": [
        {
          "indexed": true,
          "name": "index",
          "type": "uint256"
        },
        {
          "indexed": false,
          "name": "sender",
          "type": "address"
        }
      ],
      "name": "eAppointmentAdd",
      "type": "event"
    },
    {
      "anonymous": false,
      "inputs": [
        {
          "indexed": true,
          "name": "index",
          "type": "uint256"
        },
        {
          "indexed": false,
          "name": "sender",
          "type": "address"
        }
      ],
      "name": "eAppointmentUpdate",
      "type": "event"
    },
    {
      "constant": false,
      "inputs": [
        {
          "name": "_version",
          "type": "string"
        }
      ],
      "name": "UpdateVersion",
      "outputs": [],
      "payable": false,
      "stateMutability": "nonpayable",
      "type": "function"
    },
    {
      "constant": false,
      "inputs": [
        {
          "name": "_admin",
          "type": "address"
        }
      ],
      "name": "SetAdministrator",
      "outputs": [],
      "payable": false,
      "stateMutability": "nonpayable",
      "type": "function"
    },
    {
      "constant": false,
      "inputs": [
        {
          "name": "_fullname",
          "type": "string"
        },
        {
          "name": "_dob",
          "type": "string"
        },
        {
          "name": "_sex",
          "type": "uint8"
        },
        {
          "name": "_marital",
          "type": "uint8"
        },
        {
          "name": "_email",
          "type": "string"
        },
        {
          "name": "_medicalreport",
          "type": "uint256[]"
        }
      ],
      "name": "SignupPatient",
      "outputs": [],
      "payable": false,
      "stateMutability": "nonpayable",
      "type": "function"
    },
    {
      "constant": false,
      "inputs": [
        {
          "name": "_fullname",
          "type": "string"
        },
        {
          "name": "_dob",
          "type": "string"
        },
        {
          "name": "_sex",
          "type": "uint8"
        },
        {
          "name": "_marital",
          "type": "uint8"
        },
        {
          "name": "_email",
          "type": "string"
        }
      ],
      "name": "PatientUpdate",
      "outputs": [],
      "payable": false,
      "stateMutability": "nonpayable",
      "type": "function"
    },
    {
      "constant": false,
      "inputs": [
        {
          "name": "_datetime",
          "type": "uint256"
        },
        {
          "name": "_stat",
          "type": "uint8"
        },
        {
          "name": "_remark",
          "type": "string"
        }
      ],
      "name": "AppointmentAdd",
      "outputs": [],
      "payable": false,
      "stateMutability": "nonpayable",
      "type": "function"
    },
    {
      "constant": false,
      "inputs": [
        {
          "name": "_AppointmentIndex",
          "type": "uint256"
        },
        {
          "name": "_stat",
          "type": "uint8"
        },
        {
          "name": "_remark",
          "type": "string"
        }
      ],
      "name": "AppointmentUpdate",
      "outputs": [],
      "payable": false,
      "stateMutability": "nonpayable",
      "type": "function"
    },
    {
      "constant": true,
      "inputs": [],
      "name": "AppointmentGet",
      "outputs": [
        {
          "name": "",
          "type": "uint256[]"
        }
      ],
      "payable": false,
      "stateMutability": "view",
      "type": "function"
    },
    {
      "constant": false,
      "inputs": [
        {
          "name": "_receiver",
          "type": "address"
        }
      ],
      "name": "payment",
      "outputs": [],
      "payable": true,
      "stateMutability": "payable",
      "type": "function"
    },
    {
      "constant": false,
      "inputs": [
        {
          "name": "_docname",
          "type": "string"
        },
        {
          "name": "_docpath",
          "type": "string"
        },
        {
          "name": "_docdesp",
          "type": "string"
        }
      ],
      "name": "MedicalReportAdd",
      "outputs": [],
      "payable": false,
      "stateMutability": "nonpayable",
      "type": "function"
    },
    {
      "constant": true,
      "inputs": [
        {
          "name": "_addr",
          "type": "address"
        }
      ],
      "name": "MedicalReportGet",
      "outputs": [
        {
          "name": "",
          "type": "uint256[]"
        }
      ],
      "payable": false,
      "stateMutability": "view",
      "type": "function"
    },
    {
      "constant": false,
      "inputs": [],
      "name": "kill",
      "outputs": [],
      "payable": false,
      "stateMutability": "nonpayable",
      "type": "function"
    }
  ],
  "bytecode": "0x60806040526040805190810160405280600581526020017f302e302e310000000000000000000000000000000000000000000000000000008152506007908051906020019062000051929190620000ff565b503480156200005f57600080fd5b5033600660006101000a81548173ffffffffffffffffffffffffffffffffffffffff021916908373ffffffffffffffffffffffffffffffffffffffff1602179055506001600260003373ffffffffffffffffffffffffffffffffffffffff1673ffffffffffffffffffffffffffffffffffffffff16815260200190815260200160002060006101000a81548160ff021916908315150217905550620001ae565b828054600181600116156101000203166002900490600052602060002090601f016020900481019282601f106200014257805160ff191683800117855562000173565b8280016001018555821562000173579182015b828111156200017257825182559160200191906001019062000155565b5b50905062000182919062000186565b5090565b620001ab91905b80821115620001a75760008160009055506001016200018d565b5090565b90565b61237880620001be6000396000f300608060405260043610610107576000357c0100000000000000000000000000000000000000000000000000000000900463ffffffff1680630869cfbc1461010c57806312dc9013146102fd5780632018ff15146103f957806321ad6c3a1461043c5780633b92f3df1461054b57806341c0e1b5146105815780634c32abbf1461059857806354fd4d50146105c35780635e9881161461065357806363fe51a9146106bf5780638da5cb5b1461073f578063925755ff146107965780639cdf8e821461088b578063c96e8304146108b6578063d22a22551461091f578063e1d1721814610aa8578063f4fe9fad14610b40578063f7b2b0ca14610b9b578063fdf3823814610ced575b600080fd5b34801561011857600080fd5b5061014d600480360381019080803573ffffffffffffffffffffffffffffffffffffffff169060200190929190505050610d6d565b604051808773ffffffffffffffffffffffffffffffffffffffff1673ffffffffffffffffffffffffffffffffffffffff168152602001806020018060200186600181111561019757fe5b60ff1681526020018560058111156101ab57fe5b60ff16815260200180602001848103845289818151815260200191508051906020019080838360005b838110156101ef5780820151818401526020810190506101d4565b50505050905090810190601f16801561021c5780820380516001836020036101000a031916815260200191505b50848103835288818151815260200191508051906020019080838360005b8381101561025557808201518184015260208101905061023a565b50505050905090810190601f1680156102825780820380516001836020036101000a031916815260200191505b50848103825285818151815260200191508051906020019080838360005b838110156102bb5780820151818401526020810190506102a0565b50505050905090810190601f1680156102e85780820380516001836020036101000a031916815260200191505b50995050505050505050505060405180910390f35b34801561030957600080fd5b5061032860048036038101908080359060200190929190505050610fab565b604051808681526020018573ffffffffffffffffffffffffffffffffffffffff1673ffffffffffffffffffffffffffffffffffffffff16815260200184815260200183600481111561037657fe5b60ff16815260200180602001828103825283818151815260200191508051906020019080838360005b838110156103ba57808201518184015260208101905061039f565b50505050905090810190601f1680156103e75780820380516001836020036101000a031916815260200191505b50965050505050505060405180910390f35b34801561040557600080fd5b5061043a600480360381019080803573ffffffffffffffffffffffffffffffffffffffff1690602001909291905050506110a6565b005b34801561044857600080fd5b50610549600480360381019080803590602001908201803590602001908080601f0160208091040260200160405190810160405280939291908181526020018383808284378201915050505050509192919290803590602001908201803590602001908080601f0160208091040260200160405190810160405280939291908181526020018383808284378201915050505050509192919290803560ff169060200190929190803560ff169060200190929190803590602001908201803590602001908080601f01602080910402602001604051908101604052809392919081815260200183838082843782019150505050505091929192905050506111b6565b005b61057f600480360381019080803573ffffffffffffffffffffffffffffffffffffffff16906020019092919050505061141e565b005b34801561058d57600080fd5b50610596611468565b005b3480156105a457600080fd5b506105ad6114dd565b6040518082815260200191505060405180910390f35b3480156105cf57600080fd5b506105d86114e3565b6040518080602001828103825283818151815260200191508051906020019080838360005b838110156106185780820151818401526020810190506105fd565b50505050905090810190601f1680156106455780820380516001836020036101000a031916815260200191505b509250505060405180910390f35b34801561065f57600080fd5b50610668611581565b6040518080602001828103825283818151815260200191508051906020019060200280838360005b838110156106ab578082015181840152602081019050610690565b505050509050019250505060405180910390f35b3480156106cb57600080fd5b5061073d60048036038101908080359060200190929190803560ff169060200190929190803590602001908201803590602001908080601f016020809104026020016040519081016040528093929190818152602001838380828437820191505050505050919291929050505061163d565b005b34801561074b57600080fd5b50610754611867565b604051808273ffffffffffffffffffffffffffffffffffffffff1673ffffffffffffffffffffffffffffffffffffffff16815260200191505060405180910390f35b3480156107a257600080fd5b50610889600480360381019080803590602001908201803590602001908080601f0160208091040260200160405190810160405280939291908181526020018383808284378201915050505050509192919290803590602001908201803590602001908080601f0160208091040260200160405190810160405280939291908181526020018383808284378201915050505050509192919290803590602001908201803590602001908080601f016020809104026020016040519081016040528093929190818152602001838380828437820191505050505050919291929050505061188d565b005b34801561089757600080fd5b506108a0611ac9565b6040518082815260200191505060405180910390f35b3480156108c257600080fd5b5061091d600480360381019080803590602001908201803590602001908080601f0160208091040260200160405190810160405280939291908181526020018383808284378201915050505050509192919290505050611acf565b005b34801561092b57600080fd5b5061094a60048036038101908080359060200190929190505050611ae9565b6040518080602001806020018060200185151515158152602001848103845288818151815260200191508051906020019080838360005b8381101561099c578082015181840152602081019050610981565b50505050905090810190601f1680156109c95780820380516001836020036101000a031916815260200191505b50848103835287818151815260200191508051906020019080838360005b83811015610a025780820151818401526020810190506109e7565b50505050905090810190601f168015610a2f5780820380516001836020036101000a031916815260200191505b50848103825286818151815260200191508051906020019080838360005b83811015610a68578082015181840152602081019050610a4d565b50505050905090810190601f168015610a955780820380516001836020036101000a031916815260200191505b5097505050505050505060405180910390f35b348015610ab457600080fd5b50610ae9600480360381019080803573ffffffffffffffffffffffffffffffffffffffff169060200190929190505050611cee565b6040518080602001828103825283818151815260200191508051906020019060200280838360005b83811015610b2c578082015181840152602081019050610b11565b505050509050019250505060405180910390f35b348015610b4c57600080fd5b50610b81600480360381019080803573ffffffffffffffffffffffffffffffffffffffff169060200190929190505050611d87565b604051808215151515815260200191505060405180910390f35b348015610ba757600080fd5b50610ceb600480360381019080803590602001908201803590602001908080601f0160208091040260200160405190810160405280939291908181526020018383808284378201915050505050509192919290803590602001908201803590602001908080601f0160208091040260200160405190810160405280939291908181526020018383808284378201915050505050509192919290803560ff169060200190929190803560ff169060200190929190803590602001908201803590602001908080601f016020809104026020016040519081016040528093929190818152602001838380828437820191505050505050919291929080359060200190820180359060200190808060200260200160405190810160405280939291908181526020018383602002808284378201915050505050509192919290505050611da7565b005b348015610cf957600080fd5b50610d6b60048036038101908080359060200190929190803560ff169060200190929190803590602001908201803590602001908080601f0160208091040260200160405190810160405280939291908181526020018383808284378201915050505050509192919290505050611ff9565b005b60006020528060005260406000206000915090508060000160009054906101000a900473ffffffffffffffffffffffffffffffffffffffff1690806001018054600181600116156101000203166002900480601f016020809104026020016040519081016040528092919081815260200182805460018160011615610100020316600290048015610e3f5780601f10610e1457610100808354040283529160200191610e3f565b820191906000526020600020905b815481529060010190602001808311610e2257829003601f168201915b505050505090806002018054600181600116156101000203166002900480601f016020809104026020016040519081016040528092919081815260200182805460018160011615610100020316600290048015610edd5780601f10610eb257610100808354040283529160200191610edd565b820191906000526020600020905b815481529060010190602001808311610ec057829003601f168201915b5050505050908060030160009054906101000a900460ff16908060030160019054906101000a900460ff1690806004018054600181600116156101000203166002900480601f016020809104026020016040519081016040528092919081815260200182805460018160011615610100020316600290048015610fa15780601f10610f7657610100808354040283529160200191610fa1565b820191906000526020600020905b815481529060010190602001808311610f8457829003601f168201915b5050505050905086565b60016020528060005260406000206000915090508060000154908060010160009054906101000a900473ffffffffffffffffffffffffffffffffffffffff16908060020154908060030160009054906101000a900460ff1690806004018054600181600116156101000203166002900480601f01602080910402602001604051908101604052809291908181526020018280546001816001161561010002031660029004801561109c5780601f106110715761010080835404028352916020019161109c565b820191906000526020600020905b81548152906001019060200180831161107f57829003601f168201915b5050505050905085565b600660009054906101000a900473ffffffffffffffffffffffffffffffffffffffff1673ffffffffffffffffffffffffffffffffffffffff163373ffffffffffffffffffffffffffffffffffffffff1614151561110257600080fd5b600260008273ffffffffffffffffffffffffffffffffffffffff1673ffffffffffffffffffffffffffffffffffffffff16815260200190815260200160002060009054906101000a900460ff1615151561115b57600080fd5b6001600260008373ffffffffffffffffffffffffffffffffffffffff1673ffffffffffffffffffffffffffffffffffffffff16815260200190815260200160002060006101000a81548160ff02191690831515021790555050565b6000803373ffffffffffffffffffffffffffffffffffffffff1673ffffffffffffffffffffffffffffffffffffffff16815260200190815260200160002060000160009054906101000a900473ffffffffffffffffffffffffffffffffffffffff1673ffffffffffffffffffffffffffffffffffffffff163373ffffffffffffffffffffffffffffffffffffffff1614151561125157600080fd5b846000803373ffffffffffffffffffffffffffffffffffffffff1673ffffffffffffffffffffffffffffffffffffffff16815260200190815260200160002060010190805190602001906112a69291906121da565b50836000803373ffffffffffffffffffffffffffffffffffffffff1673ffffffffffffffffffffffffffffffffffffffff16815260200190815260200160002060020190805190602001906112fc9291906121da565b50826000803373ffffffffffffffffffffffffffffffffffffffff1673ffffffffffffffffffffffffffffffffffffffff16815260200190815260200160002060030160006101000a81548160ff0219169083600181111561135a57fe5b0217905550816000803373ffffffffffffffffffffffffffffffffffffffff1673ffffffffffffffffffffffffffffffffffffffff16815260200190815260200160002060030160016101000a81548160ff021916908360058111156113bc57fe5b0217905550806000803373ffffffffffffffffffffffffffffffffffffffff1673ffffffffffffffffffffffffffffffffffffffff16815260200190815260200160002060040190805190602001906114169291906121da565b505050505050565b8073ffffffffffffffffffffffffffffffffffffffff166108fc349081150290604051600060405180830381858888f19350505050158015611464573d6000803e3d6000fd5b5050565b600660009054906101000a900473ffffffffffffffffffffffffffffffffffffffff1673ffffffffffffffffffffffffffffffffffffffff163373ffffffffffffffffffffffffffffffffffffffff161415156114c457600080fd5b3373ffffffffffffffffffffffffffffffffffffffff16ff5b60055481565b60078054600181600116156101000203166002900480601f0160208091040260200160405190810160405280929190818152602001828054600181600116156101000203166002900480156115795780601f1061154e57610100808354040283529160200191611579565b820191906000526020600020905b81548152906001019060200180831161155c57829003601f168201915b505050505081565b606080600080600190505b60045481111515611634573373ffffffffffffffffffffffffffffffffffffffff166001600083815260200190815260200160002060010160009054906101000a900473ffffffffffffffffffffffffffffffffffffffff1673ffffffffffffffffffffffffffffffffffffffff1614156116275780838381518110151561161057fe5b906020019060200201818152505081806001019250505b808060010191505061158c565b82935050505090565b6000803373ffffffffffffffffffffffffffffffffffffffff1673ffffffffffffffffffffffffffffffffffffffff16815260200190815260200160002060000160009054906101000a900473ffffffffffffffffffffffffffffffffffffffff1673ffffffffffffffffffffffffffffffffffffffff163373ffffffffffffffffffffffffffffffffffffffff161415156116d857600080fd5b42831115156116e657600080fd5b60046000815480929190600101919050555060a06040519081016040528060045481526020013373ffffffffffffffffffffffffffffffffffffffff16815260200184815260200183600481111561173a57fe5b8152602001828152506001600060045481526020019081526020016000206000820151816000015560208201518160010160006101000a81548173ffffffffffffffffffffffffffffffffffffffff021916908373ffffffffffffffffffffffffffffffffffffffff1602179055506040820151816002015560608201518160030160006101000a81548160ff021916908360048111156117d757fe5b021790555060808201518160040190805190602001906117f892919061225a565b509050506004547f11bc75e1c881a356fd788845fca53e42abfc6d0fcf1f28e90fc6b518d4163e1733604051808273ffffffffffffffffffffffffffffffffffffffff1673ffffffffffffffffffffffffffffffffffffffff16815260200191505060405180910390a2505050565b600660009054906101000a900473ffffffffffffffffffffffffffffffffffffffff1681565b6000803373ffffffffffffffffffffffffffffffffffffffff1673ffffffffffffffffffffffffffffffffffffffff16815260200190815260200160002060000160009054906101000a900473ffffffffffffffffffffffffffffffffffffffff1673ffffffffffffffffffffffffffffffffffffffff163373ffffffffffffffffffffffffffffffffffffffff16141515611991576040517f08c379a000000000000000000000000000000000000000000000000000000000815260040180806020018281038252601a8152602001807f53656e6465722068617320746f20626520612070617469656e7400000000000081525060200191505060405180910390fd5b6005600081548092919060010191905055506080604051908101604052808481526020018381526020018281526020016001151581525060036000600554815260200190815260200160002060008201518160000190805190602001906119f992919061225a565b506020820151816001019080519060200190611a1692919061225a565b506040820151816002019080519060200190611a3392919061225a565b5060608201518160030160006101000a81548160ff0219169083151502179055509050506000803373ffffffffffffffffffffffffffffffffffffffff1673ffffffffffffffffffffffffffffffffffffffff1681526020019081526020016000206005016005549080600181540180825580915050906001820390600052602060002001600090919290919091505550505050565b60045481565b8060079080519060200190611ae59291906121da565b5050565b6003602052806000526040600020600091509050806000018054600181600116156101000203166002900480601f016020809104026020016040519081016040528092919081815260200182805460018160011615610100020316600290048015611b955780601f10611b6a57610100808354040283529160200191611b95565b820191906000526020600020905b815481529060010190602001808311611b7857829003601f168201915b505050505090806001018054600181600116156101000203166002900480601f016020809104026020016040519081016040528092919081815260200182805460018160011615610100020316600290048015611c335780601f10611c0857610100808354040283529160200191611c33565b820191906000526020600020905b815481529060010190602001808311611c1657829003601f168201915b505050505090806002018054600181600116156101000203166002900480601f016020809104026020016040519081016040528092919081815260200182805460018160011615610100020316600290048015611cd15780601f10611ca657610100808354040283529160200191611cd1565b820191906000526020600020905b815481529060010190602001808311611cb457829003601f168201915b5050505050908060030160009054906101000a900460ff16905084565b60606000808373ffffffffffffffffffffffffffffffffffffffff1673ffffffffffffffffffffffffffffffffffffffff168152602001908152602001600020600501805480602002602001604051908101604052809291908181526020018280548015611d7b57602002820191906000526020600020905b815481526020019060010190808311611d67575b50505050509050919050565b60026020528060005260406000206000915054906101000a900460ff1681565b6000803373ffffffffffffffffffffffffffffffffffffffff1673ffffffffffffffffffffffffffffffffffffffff16815260200190815260200160002060000160009054906101000a900473ffffffffffffffffffffffffffffffffffffffff1673ffffffffffffffffffffffffffffffffffffffff163373ffffffffffffffffffffffffffffffffffffffff1614151515611e4357600080fd5b60e0604051908101604052803373ffffffffffffffffffffffffffffffffffffffff168152602001878152602001868152602001856001811115611e8357fe5b8152602001846005811115611e9457fe5b8152602001838152602001828152506000803373ffffffffffffffffffffffffffffffffffffffff1673ffffffffffffffffffffffffffffffffffffffff16815260200190815260200160002060008201518160000160006101000a81548173ffffffffffffffffffffffffffffffffffffffff021916908373ffffffffffffffffffffffffffffffffffffffff1602179055506020820151816001019080519060200190611f4492919061225a565b506040820151816002019080519060200190611f6192919061225a565b5060608201518160030160006101000a81548160ff02191690836001811115611f8657fe5b021790555060808201518160030160016101000a81548160ff02191690836005811115611faf57fe5b021790555060a0820151816004019080519060200190611fd092919061225a565b5060c0820151816005019080519060200190611fed9291906122da565b50905050505050505050565b60011515600260003373ffffffffffffffffffffffffffffffffffffffff1673ffffffffffffffffffffffffffffffffffffffff16815260200190815260200160002060009054906101000a900460ff16151514806120e457506000803373ffffffffffffffffffffffffffffffffffffffff1673ffffffffffffffffffffffffffffffffffffffff16815260200190815260200160002060000160009054906101000a900473ffffffffffffffffffffffffffffffffffffffff1673ffffffffffffffffffffffffffffffffffffffff163373ffffffffffffffffffffffffffffffffffffffff16145b15156120ef57600080fd5b6000831115156120fe57600080fd5b600454831115151561210f57600080fd5b816001600085815260200190815260200160002060030160006101000a81548160ff0219169083600481111561214157fe5b0217905550806001600085815260200190815260200160002060040190805190602001906121709291906121da565b50827faed36e024505e25c12abbd5805f9a03e43edc723e22f4f50bb4f14a6e9ef1ada33604051808273ffffffffffffffffffffffffffffffffffffffff1673ffffffffffffffffffffffffffffffffffffffff16815260200191505060405180910390a2505050565b828054600181600116156101000203166002900490600052602060002090601f016020900481019282601f1061221b57805160ff1916838001178555612249565b82800160010185558215612249579182015b8281111561224857825182559160200191906001019061222d565b5b5090506122569190612327565b5090565b828054600181600116156101000203166002900490600052602060002090601f016020900481019282601f1061229b57805160ff19168380011785556122c9565b828001600101855582156122c9579182015b828111156122c85782518255916020019190600101906122ad565b5b5090506122d69190612327565b5090565b828054828255906000526020600020908101928215612316579160200282015b828111156123155782518255916020019190600101906122fa565b5b5090506123239190612327565b5090565b61234991905b8082111561234557600081600090555060010161232d565b5090565b905600a165627a7a723058203145ac5c3fe631bb81bf845d8a418f94e68820476e8708f8e9814320fcffae150029",
  "source": "pragma solidity ^0.4.23;\n\ncontract EMRContract {\n\n  enum SexType { MALE, FEMALE }\n  enum MaritalType { single, married, remarried, separated, divorced, widowed }\n  enum AppointmentStat { CREATED, APPROVED, REJECTED, BILLING, CLOSE }\n\n  struct Patient {\n    address client;\n    string fullname;\n    string dob;\n    SexType sex;\n    MaritalType marital;\n    string email;\n    uint256[] medicalreport;\n  }\n\n  struct Appointment{\n    uint256 index;\n    address patient;\n    uint256 datetime;\n    AppointmentStat stat;\n    string remark;\n  }\n\n  struct MedicalReport{\n    string docname;\n    string docpath;\n    string docdesp;\n    bool isActive;\n  }\n  \n  mapping(address => Patient) public patients;\n\n  mapping(uint256 => Appointment) public appointments;\n  mapping(address => bool) public administrator;\n\n  mapping(uint256 => MedicalReport) public medicalreports;\n\n  uint256 public AppointmentIndex;\n  uint256 public MedicalReportIndex;\n\n  address public owner;\n  \n  \n  string public version = \"0.0.1\";\n\n  event eAppointmentAdd(uint256 indexed index, address sender);\n\n  event eAppointmentUpdate(uint256 indexed index, address sender);\n\n\n  modifier isOwner() {\n    if (msg.sender == owner) _;\n  }\n\n  modifier isAdministrator(address _admin) {\n    if (administrator[_admin] == true) _;\n  }\n\n  constructor() public {\n    owner = msg.sender;\n    administrator[msg.sender] = true;\n  }\n\n  function UpdateVersion (string _version) public {\n    version = _version;\n  }\n\n  function SetAdministrator (address _admin) public {\n    require(msg.sender == owner);\n    require(!administrator[_admin]);\n\n    administrator[_admin] = true;\n  }\n\n  /*\n  * Sign Up Patients\n  */\n\n  function SignupPatient(string _fullname,\n      string _dob,\n      SexType _sex,\n      MaritalType _marital,\n      string _email,\n      uint256[] _medicalreport) public {\n\n    require(msg.sender != patients[msg.sender].client);\n\n    patients[msg.sender] = Patient(msg.sender, \n      _fullname, \n      _dob, \n      _sex, \n      _marital, \n      _email, \n      _medicalreport);\n\n  }\n\n\n  function PatientUpdate(string _fullname,\n      string _dob,\n      SexType _sex,\n      MaritalType _marital,\n      string _email) public {\n\n    require(msg.sender == patients[msg.sender].client);\n\n    patients[msg.sender].fullname = _fullname;\n    patients[msg.sender].dob = _dob;\n    patients[msg.sender].sex = _sex;\n    patients[msg.sender].marital = _marital;\n    patients[msg.sender].email = _email;\n\n  }\n\n  \n  function AppointmentAdd(uint256 _datetime, \n    AppointmentStat _stat, string _remark) public {\n    \n    require(msg.sender == patients[msg.sender].client);\n    require(_datetime > now);\n    \n    AppointmentIndex++;\n\n    appointments[AppointmentIndex] = Appointment(AppointmentIndex,\n      msg.sender,\n      _datetime,\n      _stat,\n      _remark);\n\n    emit eAppointmentAdd(AppointmentIndex, msg.sender);\n\n  }\n\n  function AppointmentUpdate(uint256 _AppointmentIndex, \n    AppointmentStat _stat, \n    string _remark) public {\n\n    require(administrator[msg.sender] == true || msg.sender == patients[msg.sender].client);\n    require(_AppointmentIndex > 0);\n    require(_AppointmentIndex <= AppointmentIndex);\n\n    appointments[_AppointmentIndex].stat = _stat;\n    appointments[_AppointmentIndex].remark = _remark;\n\n    emit eAppointmentUpdate(_AppointmentIndex, msg.sender);\n\n  }\n\n  function AppointmentGet() public view returns (uint256[]){\n    uint256[] memory results;\n    uint256 count;\n    for (uint256 i = 1; i <= AppointmentIndex; i++) {\n        if(appointments[i].patient == msg.sender)\n        {\n          //results.push(appointments[i].index);\n          results[count] = i;\n          count++;\n        }\n    }\n    return results;\n  }\n\n  function payment(address _receiver) public payable {\n    _receiver.transfer(msg.value);\n  }\n\n  function MedicalReportAdd(string _docname,\n    string _docpath,\n    string _docdesp) public {\n\n      require(msg.sender == patients[msg.sender].client, \"Sender has to be a patient\");\n\n      MedicalReportIndex++;\n      medicalreports[MedicalReportIndex] = MedicalReport(_docname, \n        _docpath, \n        _docdesp, \n        true);\n\n      patients[msg.sender].medicalreport.push(MedicalReportIndex);\n\n  }\n\n  function MedicalReportGet(address _addr) public view returns(uint256[]){\n    return patients[_addr].medicalreport;\n  }\n\n \n\n  function kill() public {\n    require(msg.sender == owner);\n    selfdestruct(msg.sender);\n  }\n\n\n\n\n}\n",
  "sourcePath": "C:\\xampp\\htdocs\\BLOCKCHAIN\\Blockchain-EMR\\contracts\\EMRContract.sol",
  "compiler": {
    "name": "solc",
    "version": "0.4.24+commit.e67f0147.Emscripten.clang"
  },
  "schemaVersion": "2.0.1",
  "updatedAt": "2018-10-02T08:28:59.760Z"
}