{
  "contractName": "EMR",
  "abi": [
    {
      "constant": true,
      "inputs": [
        {
          "name": "",
          "type": "address"
        }
      ],
      "name": "patients",
      "outputs": [
        {
          "name": "client",
          "type": "address"
        },
        {
          "name": "fullname",
          "type": "string"
        },
        {
          "name": "dob",
          "type": "string"
        },
        {
          "name": "sex",
          "type": "uint8"
        },
        {
          "name": "marital",
          "type": "uint8"
        },
        {
          "name": "email",
          "type": "string"
        }
      ],
      "payable": false,
      "stateMutability": "view",
      "type": "function"
    },
    {
      "constant": true,
      "inputs": [
        {
          "name": "",
          "type": "uint256"
        }
      ],
      "name": "appointments",
      "outputs": [
        {
          "name": "index",
          "type": "uint256"
        },
        {
          "name": "patient",
          "type": "address"
        },
        {
          "name": "datetime",
          "type": "uint256"
        },
        {
          "name": "stat",
          "type": "uint8"
        },
        {
          "name": "remark",
          "type": "string"
        }
      ],
      "payable": false,
      "stateMutability": "view",
      "type": "function"
    },
    {
      "constant": true,
      "inputs": [],
      "name": "MedicalReportIndex",
      "outputs": [
        {
          "name": "",
          "type": "uint256"
        }
      ],
      "payable": false,
      "stateMutability": "view",
      "type": "function"
    },
    {
      "constant": true,
      "inputs": [
        {
          "name": "",
          "type": "address"
        }
      ],
      "name": "patientinsurances",
      "outputs": [
        {
          "name": "provider",
          "type": "string"
        },
        {
          "name": "plan_name",
          "type": "string"
        },
        {
          "name": "policy_number",
          "type": "string"
        }
      ],
      "payable": false,
      "stateMutability": "view",
      "type": "function"
    },
    {
      "constant": true,
      "inputs": [],
      "name": "version",
      "outputs": [
        {
          "name": "",
          "type": "string"
        }
      ],
      "payable": false,
      "stateMutability": "view",
      "type": "function"
    },
    {
      "constant": true,
      "inputs": [
        {
          "name": "",
          "type": "address"
        }
      ],
      "name": "patientemployers",
      "outputs": [
        {
          "name": "employer_name",
          "type": "string"
        },
        {
          "name": "employer_address",
          "type": "string"
        },
        {
          "name": "employer_city",
          "type": "string"
        },
        {
          "name": "employer_state",
          "type": "string"
        },
        {
          "name": "employer_postal_code",
          "type": "string"
        },
        {
          "name": "employer_country",
          "type": "string"
        }
      ],
      "payable": false,
      "stateMutability": "view",
      "type": "function"
    },
    {
      "constant": true,
      "inputs": [],
      "name": "owner",
      "outputs": [
        {
          "name": "",
          "type": "address"
        }
      ],
      "payable": false,
      "stateMutability": "view",
      "type": "function"
    },
    {
      "constant": true,
      "inputs": [
        {
          "name": "",
          "type": "address"
        }
      ],
      "name": "patientdetails",
      "outputs": [
        {
          "name": "postal_address",
          "type": "string"
        },
        {
          "name": "city",
          "type": "string"
        },
        {
          "name": "postal_code",
          "type": "uint256"
        },
        {
          "name": "contact_phone",
          "type": "uint256"
        },
        {
          "name": "occupation",
          "type": "string"
        },
        {
          "name": "language",
          "type": "string"
        },
        {
          "name": "ethnicity",
          "type": "string"
        },
        {
          "name": "race",
          "type": "string"
        }
      ],
      "payable": false,
      "stateMutability": "view",
      "type": "function"
    },
    {
      "constant": true,
      "inputs": [],
      "name": "AppointmentIndex",
      "outputs": [
        {
          "name": "",
          "type": "uint256"
        }
      ],
      "payable": false,
      "stateMutability": "view",
      "type": "function"
    },
    {
      "constant": true,
      "inputs": [
        {
          "name": "",
          "type": "uint256"
        }
      ],
      "name": "medicalreports",
      "outputs": [
        {
          "name": "docname",
          "type": "string"
        },
        {
          "name": "docpath",
          "type": "string"
        },
        {
          "name": "docdesp",
          "type": "string"
        },
        {
          "name": "isActive",
          "type": "bool"
        }
      ],
      "payable": false,
      "stateMutability": "view",
      "type": "function"
    },
    {
      "constant": true,
      "inputs": [
        {
          "name": "",
          "type": "address"
        }
      ],
      "name": "administrator",
      "outputs": [
        {
          "name": "",
          "type": "bool"
        }
      ],
      "payable": false,
      "stateMutability": "view",
      "type": "function"
    },
    {
      "inputs": [],
      "payable": false,
      "stateMutability": "nonpayable",
      "type": "constructor"
    },
    {
      "anonymous": false,
      "inputs": [
        {
          "indexed": true,
          "name": "index",
          "type": "uint256"
        },
        {
          "indexed": false,
          "name": "sender",
          "type": "address"
        }
      ],
      "name": "eAppointmentAdd",
      "type": "event"
    },
    {
      "anonymous": false,
      "inputs": [
        {
          "indexed": true,
          "name": "index",
          "type": "uint256"
        },
        {
          "indexed": false,
          "name": "sender",
          "type": "address"
        }
      ],
      "name": "eAppointmentUpdate",
      "type": "event"
    },
    {
      "constant": false,
      "inputs": [
        {
          "name": "_version",
          "type": "string"
        }
      ],
      "name": "UpdateVersion",
      "outputs": [],
      "payable": false,
      "stateMutability": "nonpayable",
      "type": "function"
    },
    {
      "constant": false,
      "inputs": [
        {
          "name": "_admin",
          "type": "address"
        }
      ],
      "name": "SetAdministrator",
      "outputs": [],
      "payable": false,
      "stateMutability": "nonpayable",
      "type": "function"
    },
    {
      "constant": false,
      "inputs": [
        {
          "name": "_fullname",
          "type": "string"
        },
        {
          "name": "_dob",
          "type": "string"
        },
        {
          "name": "_sex",
          "type": "uint8"
        },
        {
          "name": "_marital",
          "type": "uint8"
        },
        {
          "name": "_postal_address",
          "type": "string"
        },
        {
          "name": "_city",
          "type": "string"
        },
        {
          "name": "_postal_code",
          "type": "uint256"
        },
        {
          "name": "_contact_phone",
          "type": "uint256"
        },
        {
          "name": "_email",
          "type": "string"
        },
        {
          "name": "_occupation",
          "type": "string"
        },
        {
          "name": "_language",
          "type": "string"
        },
        {
          "name": "_ethnicity",
          "type": "string"
        },
        {
          "name": "_race",
          "type": "string"
        },
        {
          "name": "_medicalreport",
          "type": "uint256[]"
        }
      ],
      "name": "SignupPatient",
      "outputs": [],
      "payable": false,
      "stateMutability": "nonpayable",
      "type": "function"
    },
    {
      "constant": false,
      "inputs": [
        {
          "name": "_fullname",
          "type": "string"
        },
        {
          "name": "_dob",
          "type": "string"
        },
        {
          "name": "_sex",
          "type": "uint8"
        },
        {
          "name": "_marital",
          "type": "uint8"
        },
        {
          "name": "_postal_address",
          "type": "string"
        },
        {
          "name": "_city",
          "type": "string"
        },
        {
          "name": "_postal_code",
          "type": "uint256"
        },
        {
          "name": "_contact_phone",
          "type": "uint256"
        },
        {
          "name": "_email",
          "type": "string"
        },
        {
          "name": "_occupation",
          "type": "string"
        },
        {
          "name": "_language",
          "type": "string"
        },
        {
          "name": "_ethnicity",
          "type": "string"
        },
        {
          "name": "_race",
          "type": "string"
        }
      ],
      "name": "PatientUpdate",
      "outputs": [],
      "payable": false,
      "stateMutability": "nonpayable",
      "type": "function"
    },
    {
      "constant": false,
      "inputs": [
        {
          "name": "_datetime",
          "type": "uint256"
        },
        {
          "name": "_stat",
          "type": "uint8"
        },
        {
          "name": "_remark",
          "type": "string"
        }
      ],
      "name": "AppointmentAdd",
      "outputs": [],
      "payable": false,
      "stateMutability": "nonpayable",
      "type": "function"
    },
    {
      "constant": false,
      "inputs": [
        {
          "name": "_AppointmentIndex",
          "type": "uint256"
        },
        {
          "name": "_stat",
          "type": "uint8"
        }
      ],
      "name": "AppointmentUpdate",
      "outputs": [],
      "payable": false,
      "stateMutability": "nonpayable",
      "type": "function"
    },
    {
      "constant": true,
      "inputs": [],
      "name": "AppointmentGet",
      "outputs": [
        {
          "name": "",
          "type": "uint256[]"
        }
      ],
      "payable": false,
      "stateMutability": "view",
      "type": "function"
    },
    {
      "constant": false,
      "inputs": [
        {
          "name": "_docname",
          "type": "string"
        },
        {
          "name": "_docpath",
          "type": "string"
        },
        {
          "name": "_docdesp",
          "type": "string"
        }
      ],
      "name": "MedicalReportAdd",
      "outputs": [],
      "payable": false,
      "stateMutability": "nonpayable",
      "type": "function"
    },
    {
      "constant": true,
      "inputs": [
        {
          "name": "_addr",
          "type": "address"
        }
      ],
      "name": "MedicalReportGet",
      "outputs": [
        {
          "name": "",
          "type": "uint256[]"
        }
      ],
      "payable": false,
      "stateMutability": "view",
      "type": "function"
    },
    {
      "constant": false,
      "inputs": [],
      "name": "kill",
      "outputs": [],
      "payable": false,
      "stateMutability": "nonpayable",
      "type": "function"
    }
  ],
  "bytecode": "0x60806040526040805190810160405280600581526020017f302e302e31000000000000000000000000000000000000000000000000000000815250600a908051906020019062000051929190620000ff565b503480156200005f57600080fd5b5033600960006101000a81548173ffffffffffffffffffffffffffffffffffffffff021916908373ffffffffffffffffffffffffffffffffffffffff1602179055506001600560003373ffffffffffffffffffffffffffffffffffffffff1673ffffffffffffffffffffffffffffffffffffffff16815260200190815260200160002060006101000a81548160ff021916908315150217905550620001ae565b828054600181600116156101000203166002900490600052602060002090601f016020900481019282601f106200014257805160ff191683800117855562000173565b8280016001018555821562000173579182015b828111156200017257825182559160200191906001019062000155565b5b50905062000182919062000186565b5090565b620001ab91905b80821115620001a75760008160009055506001016200018d565b5090565b90565b613adb80620001be6000396000f30060806040526004361061011d576000357c0100000000000000000000000000000000000000000000000000000000900463ffffffff168063021be28c146101225780630869cfbc1461015c57806312dc90131461034d5780632018ff151461044957806341c0e1b51461048c5780634c32abbf146104a35780634cbf3f6a146104ce5780634e71cb691461066257806354fd4d50146109295780635e988116146109b957806363fe51a914610a255780636fa350b514610aa55780638da5cb5b14610d7d578063925755ff14610dd4578063982d5ef314610ec95780639cdf8e82146111af578063b12b7287146111da578063c96e8304146114e4578063d22a22551461154d578063e1d17218146116d6578063f4fe9fad1461176e575b600080fd5b34801561012e57600080fd5b5061015a60048036038101908080359060200190929190803560ff1690602001909291905050506117c9565b005b34801561016857600080fd5b5061019d600480360381019080803573ffffffffffffffffffffffffffffffffffffffff16906020019092919050505061197e565b604051808773ffffffffffffffffffffffffffffffffffffffff1673ffffffffffffffffffffffffffffffffffffffff16815260200180602001806020018660018111156101e757fe5b60ff1681526020018560058111156101fb57fe5b60ff16815260200180602001848103845289818151815260200191508051906020019080838360005b8381101561023f578082015181840152602081019050610224565b50505050905090810190601f16801561026c5780820380516001836020036101000a031916815260200191505b50848103835288818151815260200191508051906020019080838360005b838110156102a557808201518184015260208101905061028a565b50505050905090810190601f1680156102d25780820380516001836020036101000a031916815260200191505b50848103825285818151815260200191508051906020019080838360005b8381101561030b5780820151818401526020810190506102f0565b50505050905090810190601f1680156103385780820380516001836020036101000a031916815260200191505b50995050505050505050505060405180910390f35b34801561035957600080fd5b5061037860048036038101908080359060200190929190505050611bbc565b604051808681526020018573ffffffffffffffffffffffffffffffffffffffff1673ffffffffffffffffffffffffffffffffffffffff1681526020018481526020018360048111156103c657fe5b60ff16815260200180602001828103825283818151815260200191508051906020019080838360005b8381101561040a5780820151818401526020810190506103ef565b50505050905090810190601f1680156104375780820380516001836020036101000a031916815260200191505b50965050505050505060405180910390f35b34801561045557600080fd5b5061048a600480360381019080803573ffffffffffffffffffffffffffffffffffffffff169060200190929190505050611cb7565b005b34801561049857600080fd5b506104a1611dc7565b005b3480156104af57600080fd5b506104b8611e3c565b6040518082815260200191505060405180910390f35b3480156104da57600080fd5b5061050f600480360381019080803573ffffffffffffffffffffffffffffffffffffffff169060200190929190505050611e42565b60405180806020018060200180602001848103845287818151815260200191508051906020019080838360005b8381101561055757808201518184015260208101905061053c565b50505050905090810190601f1680156105845780820380516001836020036101000a031916815260200191505b50848103835286818151815260200191508051906020019080838360005b838110156105bd5780820151818401526020810190506105a2565b50505050905090810190601f1680156105ea5780820380516001836020036101000a031916815260200191505b50848103825285818151815260200191508051906020019080838360005b83811015610623578082015181840152602081019050610608565b50505050905090810190601f1680156106505780820380516001836020036101000a031916815260200191505b50965050505050505060405180910390f35b34801561066e57600080fd5b50610927600480360381019080803590602001908201803590602001908080601f0160208091040260200160405190810160405280939291908181526020018383808284378201915050505050509192919290803590602001908201803590602001908080601f0160208091040260200160405190810160405280939291908181526020018383808284378201915050505050509192919290803560ff169060200190929190803560ff169060200190929190803590602001908201803590602001908080601f0160208091040260200160405190810160405280939291908181526020018383808284378201915050505050509192919290803590602001908201803590602001908080601f01602080910402602001604051908101604052809392919081815260200183838082843782019150505050505091929192908035906020019092919080359060200190929190803590602001908201803590602001908080601f0160208091040260200160405190810160405280939291908181526020018383808284378201915050505050509192919290803590602001908201803590602001908080601f0160208091040260200160405190810160405280939291908181526020018383808284378201915050505050509192919290803590602001908201803590602001908080601f0160208091040260200160405190810160405280939291908181526020018383808284378201915050505050509192919290803590602001908201803590602001908080601f0160208091040260200160405190810160405280939291908181526020018383808284378201915050505050509192919290803590602001908201803590602001908080601f0160208091040260200160405190810160405280939291908181526020018383808284378201915050505050509192919290505050612034565b005b34801561093557600080fd5b5061093e61253c565b6040518080602001828103825283818151815260200191508051906020019080838360005b8381101561097e578082015181840152602081019050610963565b50505050905090810190601f1680156109ab5780820380516001836020036101000a031916815260200191505b509250505060405180910390f35b3480156109c557600080fd5b506109ce6125da565b6040518080602001828103825283818151815260200191508051906020019060200280838360005b83811015610a115780820151818401526020810190506109f6565b505050509050019250505060405180910390f35b348015610a3157600080fd5b50610aa360048036038101908080359060200190929190803560ff169060200190929190803590602001908201803590602001908080601f0160208091040260200160405190810160405280939291908181526020018383808284378201915050505050509192919290505050612696565b005b348015610ab157600080fd5b50610ae6600480360381019080803573ffffffffffffffffffffffffffffffffffffffff1690602001909291905050506128c0565b6040518080602001806020018060200180602001806020018060200187810387528d818151815260200191508051906020019080838360005b83811015610b3a578082015181840152602081019050610b1f565b50505050905090810190601f168015610b675780820380516001836020036101000a031916815260200191505b5087810386528c818151815260200191508051906020019080838360005b83811015610ba0578082015181840152602081019050610b85565b50505050905090810190601f168015610bcd5780820380516001836020036101000a031916815260200191505b5087810385528b818151815260200191508051906020019080838360005b83811015610c06578082015181840152602081019050610beb565b50505050905090810190601f168015610c335780820380516001836020036101000a031916815260200191505b5087810384528a818151815260200191508051906020019080838360005b83811015610c6c578082015181840152602081019050610c51565b50505050905090810190601f168015610c995780820380516001836020036101000a031916815260200191505b50878103835289818151815260200191508051906020019080838360005b83811015610cd2578082015181840152602081019050610cb7565b50505050905090810190601f168015610cff5780820380516001836020036101000a031916815260200191505b50878103825288818151815260200191508051906020019080838360005b83811015610d38578082015181840152602081019050610d1d565b50505050905090810190601f168015610d655780820380516001836020036101000a031916815260200191505b509c5050505050505050505050505060405180910390f35b348015610d8957600080fd5b50610d92612c8c565b604051808273ffffffffffffffffffffffffffffffffffffffff1673ffffffffffffffffffffffffffffffffffffffff16815260200191505060405180910390f35b348015610de057600080fd5b50610ec7600480360381019080803590602001908201803590602001908080601f0160208091040260200160405190810160405280939291908181526020018383808284378201915050505050509192919290803590602001908201803590602001908080601f0160208091040260200160405190810160405280939291908181526020018383808284378201915050505050509192919290803590602001908201803590602001908080601f0160208091040260200160405190810160405280939291908181526020018383808284378201915050505050509192919290505050612cb2565b005b348015610ed557600080fd5b50610f0a600480360381019080803573ffffffffffffffffffffffffffffffffffffffff169060200190929190505050612eee565b6040518080602001806020018981526020018881526020018060200180602001806020018060200187810387528f818151815260200191508051906020019080838360005b83811015610f6a578082015181840152602081019050610f4f565b50505050905090810190601f168015610f975780820380516001836020036101000a031916815260200191505b5087810386528e818151815260200191508051906020019080838360005b83811015610fd0578082015181840152602081019050610fb5565b50505050905090810190601f168015610ffd5780820380516001836020036101000a031916815260200191505b5087810385528b818151815260200191508051906020019080838360005b8381101561103657808201518184015260208101905061101b565b50505050905090810190601f1680156110635780820380516001836020036101000a031916815260200191505b5087810384528a818151815260200191508051906020019080838360005b8381101561109c578082015181840152602081019050611081565b50505050905090810190601f1680156110c95780820380516001836020036101000a031916815260200191505b50878103835289818151815260200191508051906020019080838360005b838110156111025780820151818401526020810190506110e7565b50505050905090810190601f16801561112f5780820380516001836020036101000a031916815260200191505b50878103825288818151815260200191508051906020019080838360005b8381101561116857808201518184015260208101905061114d565b50505050905090810190601f1680156111955780820380516001836020036101000a031916815260200191505b509e50505050505050505050505050505060405180910390f35b3480156111bb57600080fd5b506111c46132c6565b6040518082815260200191505060405180910390f35b3480156111e657600080fd5b506114e2600480360381019080803590602001908201803590602001908080601f0160208091040260200160405190810160405280939291908181526020018383808284378201915050505050509192919290803590602001908201803590602001908080601f0160208091040260200160405190810160405280939291908181526020018383808284378201915050505050509192919290803560ff169060200190929190803560ff169060200190929190803590602001908201803590602001908080601f0160208091040260200160405190810160405280939291908181526020018383808284378201915050505050509192919290803590602001908201803590602001908080601f01602080910402602001604051908101604052809392919081815260200183838082843782019150505050505091929192908035906020019092919080359060200190929190803590602001908201803590602001908080601f0160208091040260200160405190810160405280939291908181526020018383808284378201915050505050509192919290803590602001908201803590602001908080601f0160208091040260200160405190810160405280939291908181526020018383808284378201915050505050509192919290803590602001908201803590602001908080601f0160208091040260200160405190810160405280939291908181526020018383808284378201915050505050509192919290803590602001908201803590602001908080601f0160208091040260200160405190810160405280939291908181526020018383808284378201915050505050509192919290803590602001908201803590602001908080601f0160208091040260200160405190810160405280939291908181526020018383808284378201915050505050509192919290803590602001908201803590602001908080602002602001604051908101604052809392919081815260200183836020028082843782019150505050505091929192905050506132cc565b005b3480156114f057600080fd5b5061154b600480360381019080803590602001908201803590602001908080601f0160208091040260200160405190810160405280939291908181526020018383808284378201915050505050509192919290505050613665565b005b34801561155957600080fd5b506115786004803603810190808035906020019092919050505061367f565b6040518080602001806020018060200185151515158152602001848103845288818151815260200191508051906020019080838360005b838110156115ca5780820151818401526020810190506115af565b50505050905090810190601f1680156115f75780820380516001836020036101000a031916815260200191505b50848103835287818151815260200191508051906020019080838360005b83811015611630578082015181840152602081019050611615565b50505050905090810190601f16801561165d5780820380516001836020036101000a031916815260200191505b50848103825286818151815260200191508051906020019080838360005b8381101561169657808201518184015260208101905061167b565b50505050905090810190601f1680156116c35780820380516001836020036101000a031916815260200191505b5097505050505050505060405180910390f35b3480156116e257600080fd5b50611717600480360381019080803573ffffffffffffffffffffffffffffffffffffffff169060200190929190505050613884565b6040518080602001828103825283818151815260200191508051906020019060200280838360005b8381101561175a57808201518184015260208101905061173f565b505050509050019250505060405180910390f35b34801561177a57600080fd5b506117af600480360381019080803573ffffffffffffffffffffffffffffffffffffffff16906020019092919050505061391d565b604051808215151515815260200191505060405180910390f35b60011515600560003373ffffffffffffffffffffffffffffffffffffffff1673ffffffffffffffffffffffffffffffffffffffff16815260200190815260200160002060009054906101000a900460ff16151514806118b457506000803373ffffffffffffffffffffffffffffffffffffffff1673ffffffffffffffffffffffffffffffffffffffff16815260200190815260200160002060000160009054906101000a900473ffffffffffffffffffffffffffffffffffffffff1673ffffffffffffffffffffffffffffffffffffffff163373ffffffffffffffffffffffffffffffffffffffff16145b15156118bf57600080fd5b6000821115156118ce57600080fd5b60075482111515156118df57600080fd5b806004600084815260200190815260200160002060030160006101000a81548160ff0219169083600481111561191157fe5b0217905550817faed36e024505e25c12abbd5805f9a03e43edc723e22f4f50bb4f14a6e9ef1ada33604051808273ffffffffffffffffffffffffffffffffffffffff1673ffffffffffffffffffffffffffffffffffffffff16815260200191505060405180910390a25050565b60006020528060005260406000206000915090508060000160009054906101000a900473ffffffffffffffffffffffffffffffffffffffff1690806001018054600181600116156101000203166002900480601f016020809104026020016040519081016040528092919081815260200182805460018160011615610100020316600290048015611a505780601f10611a2557610100808354040283529160200191611a50565b820191906000526020600020905b815481529060010190602001808311611a3357829003601f168201915b505050505090806002018054600181600116156101000203166002900480601f016020809104026020016040519081016040528092919081815260200182805460018160011615610100020316600290048015611aee5780601f10611ac357610100808354040283529160200191611aee565b820191906000526020600020905b815481529060010190602001808311611ad157829003601f168201915b5050505050908060030160009054906101000a900460ff16908060030160019054906101000a900460ff1690806004018054600181600116156101000203166002900480601f016020809104026020016040519081016040528092919081815260200182805460018160011615610100020316600290048015611bb25780601f10611b8757610100808354040283529160200191611bb2565b820191906000526020600020905b815481529060010190602001808311611b9557829003601f168201915b5050505050905086565b60046020528060005260406000206000915090508060000154908060010160009054906101000a900473ffffffffffffffffffffffffffffffffffffffff16908060020154908060030160009054906101000a900460ff1690806004018054600181600116156101000203166002900480601f016020809104026020016040519081016040528092919081815260200182805460018160011615610100020316600290048015611cad5780601f10611c8257610100808354040283529160200191611cad565b820191906000526020600020905b815481529060010190602001808311611c9057829003601f168201915b5050505050905085565b600960009054906101000a900473ffffffffffffffffffffffffffffffffffffffff1673ffffffffffffffffffffffffffffffffffffffff163373ffffffffffffffffffffffffffffffffffffffff16141515611d1357600080fd5b600560008273ffffffffffffffffffffffffffffffffffffffff1673ffffffffffffffffffffffffffffffffffffffff16815260200190815260200160002060009054906101000a900460ff16151515611d6c57600080fd5b6001600560008373ffffffffffffffffffffffffffffffffffffffff1673ffffffffffffffffffffffffffffffffffffffff16815260200190815260200160002060006101000a81548160ff02191690831515021790555050565b600960009054906101000a900473ffffffffffffffffffffffffffffffffffffffff1673ffffffffffffffffffffffffffffffffffffffff163373ffffffffffffffffffffffffffffffffffffffff16141515611e2357600080fd5b3373ffffffffffffffffffffffffffffffffffffffff16ff5b60085481565b6003602052806000526040600020600091509050806000018054600181600116156101000203166002900480601f016020809104026020016040519081016040528092919081815260200182805460018160011615610100020316600290048015611eee5780601f10611ec357610100808354040283529160200191611eee565b820191906000526020600020905b815481529060010190602001808311611ed157829003601f168201915b505050505090806001018054600181600116156101000203166002900480601f016020809104026020016040519081016040528092919081815260200182805460018160011615610100020316600290048015611f8c5780601f10611f6157610100808354040283529160200191611f8c565b820191906000526020600020905b815481529060010190602001808311611f6f57829003601f168201915b505050505090806002018054600181600116156101000203166002900480601f01602080910402602001604051908101604052809291908181526020018280546001816001161561010002031660029004801561202a5780601f10611fff5761010080835404028352916020019161202a565b820191906000526020600020905b81548152906001019060200180831161200d57829003601f168201915b5050505050905083565b6000803373ffffffffffffffffffffffffffffffffffffffff1673ffffffffffffffffffffffffffffffffffffffff16815260200190815260200160002060000160009054906101000a900473ffffffffffffffffffffffffffffffffffffffff1673ffffffffffffffffffffffffffffffffffffffff163373ffffffffffffffffffffffffffffffffffffffff161415156120cf57600080fd5b8c6000803373ffffffffffffffffffffffffffffffffffffffff1673ffffffffffffffffffffffffffffffffffffffff168152602001908152602001600020600101908051906020019061212492919061393d565b508b6000803373ffffffffffffffffffffffffffffffffffffffff1673ffffffffffffffffffffffffffffffffffffffff168152602001908152602001600020600201908051906020019061217a92919061393d565b508a6000803373ffffffffffffffffffffffffffffffffffffffff1673ffffffffffffffffffffffffffffffffffffffff16815260200190815260200160002060030160006101000a81548160ff021916908360018111156121d857fe5b0217905550896000803373ffffffffffffffffffffffffffffffffffffffff1673ffffffffffffffffffffffffffffffffffffffff16815260200190815260200160002060030160016101000a81548160ff0219169083600581111561223a57fe5b0217905550846000803373ffffffffffffffffffffffffffffffffffffffff1673ffffffffffffffffffffffffffffffffffffffff168152602001908152602001600020600401908051906020019061229492919061393d565b5088600160003373ffffffffffffffffffffffffffffffffffffffff1673ffffffffffffffffffffffffffffffffffffffff16815260200190815260200160002060000190805190602001906122eb92919061393d565b5087600160003373ffffffffffffffffffffffffffffffffffffffff1673ffffffffffffffffffffffffffffffffffffffff168152602001908152602001600020600101908051906020019061234292919061393d565b5086600160003373ffffffffffffffffffffffffffffffffffffffff1673ffffffffffffffffffffffffffffffffffffffff1681526020019081526020016000206002018190555085600160003373ffffffffffffffffffffffffffffffffffffffff1673ffffffffffffffffffffffffffffffffffffffff1681526020019081526020016000206003018190555083600160003373ffffffffffffffffffffffffffffffffffffffff1673ffffffffffffffffffffffffffffffffffffffff168152602001908152602001600020600401908051906020019061242792919061393d565b5082600160003373ffffffffffffffffffffffffffffffffffffffff1673ffffffffffffffffffffffffffffffffffffffff168152602001908152602001600020600501908051906020019061247e92919061393d565b5081600160003373ffffffffffffffffffffffffffffffffffffffff1673ffffffffffffffffffffffffffffffffffffffff16815260200190815260200160002060060190805190602001906124d592919061393d565b5080600160003373ffffffffffffffffffffffffffffffffffffffff1673ffffffffffffffffffffffffffffffffffffffff168152602001908152602001600020600701908051906020019061252c92919061393d565b5050505050505050505050505050565b600a8054600181600116156101000203166002900480601f0160208091040260200160405190810160405280929190818152602001828054600181600116156101000203166002900480156125d25780601f106125a7576101008083540402835291602001916125d2565b820191906000526020600020905b8154815290600101906020018083116125b557829003601f168201915b505050505081565b606080600080600190505b6007548111151561268d573373ffffffffffffffffffffffffffffffffffffffff166004600083815260200190815260200160002060010160009054906101000a900473ffffffffffffffffffffffffffffffffffffffff1673ffffffffffffffffffffffffffffffffffffffff1614156126805780838381518110151561266957fe5b906020019060200201818152505081806001019250505b80806001019150506125e5565b82935050505090565b6000803373ffffffffffffffffffffffffffffffffffffffff1673ffffffffffffffffffffffffffffffffffffffff16815260200190815260200160002060000160009054906101000a900473ffffffffffffffffffffffffffffffffffffffff1673ffffffffffffffffffffffffffffffffffffffff163373ffffffffffffffffffffffffffffffffffffffff1614151561273157600080fd5b428311151561273f57600080fd5b60076000815480929190600101919050555060a06040519081016040528060075481526020013373ffffffffffffffffffffffffffffffffffffffff16815260200184815260200183600481111561279357fe5b8152602001828152506004600060075481526020019081526020016000206000820151816000015560208201518160010160006101000a81548173ffffffffffffffffffffffffffffffffffffffff021916908373ffffffffffffffffffffffffffffffffffffffff1602179055506040820151816002015560608201518160030160006101000a81548160ff0219169083600481111561283057fe5b021790555060808201518160040190805190602001906128519291906139bd565b509050506007547f11bc75e1c881a356fd788845fca53e42abfc6d0fcf1f28e90fc6b518d4163e1733604051808273ffffffffffffffffffffffffffffffffffffffff1673ffffffffffffffffffffffffffffffffffffffff16815260200191505060405180910390a2505050565b6002602052806000526040600020600091509050806000018054600181600116156101000203166002900480601f01602080910402602001604051908101604052809291908181526020018280546001816001161561010002031660029004801561296c5780601f106129415761010080835404028352916020019161296c565b820191906000526020600020905b81548152906001019060200180831161294f57829003601f168201915b505050505090806001018054600181600116156101000203166002900480601f016020809104026020016040519081016040528092919081815260200182805460018160011615610100020316600290048015612a0a5780601f106129df57610100808354040283529160200191612a0a565b820191906000526020600020905b8154815290600101906020018083116129ed57829003601f168201915b505050505090806002018054600181600116156101000203166002900480601f016020809104026020016040519081016040528092919081815260200182805460018160011615610100020316600290048015612aa85780601f10612a7d57610100808354040283529160200191612aa8565b820191906000526020600020905b815481529060010190602001808311612a8b57829003601f168201915b505050505090806003018054600181600116156101000203166002900480601f016020809104026020016040519081016040528092919081815260200182805460018160011615610100020316600290048015612b465780601f10612b1b57610100808354040283529160200191612b46565b820191906000526020600020905b815481529060010190602001808311612b2957829003601f168201915b505050505090806004018054600181600116156101000203166002900480601f016020809104026020016040519081016040528092919081815260200182805460018160011615610100020316600290048015612be45780601f10612bb957610100808354040283529160200191612be4565b820191906000526020600020905b815481529060010190602001808311612bc757829003601f168201915b505050505090806005018054600181600116156101000203166002900480601f016020809104026020016040519081016040528092919081815260200182805460018160011615610100020316600290048015612c825780601f10612c5757610100808354040283529160200191612c82565b820191906000526020600020905b815481529060010190602001808311612c6557829003601f168201915b5050505050905086565b600960009054906101000a900473ffffffffffffffffffffffffffffffffffffffff1681565b6000803373ffffffffffffffffffffffffffffffffffffffff1673ffffffffffffffffffffffffffffffffffffffff16815260200190815260200160002060000160009054906101000a900473ffffffffffffffffffffffffffffffffffffffff1673ffffffffffffffffffffffffffffffffffffffff163373ffffffffffffffffffffffffffffffffffffffff16141515612db6576040517f08c379a000000000000000000000000000000000000000000000000000000000815260040180806020018281038252601a8152602001807f53656e6465722068617320746f20626520612070617469656e7400000000000081525060200191505060405180910390fd5b600860008154809291906001019190505550608060405190810160405280848152602001838152602001828152602001600115158152506006600060085481526020019081526020016000206000820151816000019080519060200190612e1e9291906139bd565b506020820151816001019080519060200190612e3b9291906139bd565b506040820151816002019080519060200190612e589291906139bd565b5060608201518160030160006101000a81548160ff0219169083151502179055509050506000803373ffffffffffffffffffffffffffffffffffffffff1673ffffffffffffffffffffffffffffffffffffffff1681526020019081526020016000206005016008549080600181540180825580915050906001820390600052602060002001600090919290919091505550505050565b6001602052806000526040600020600091509050806000018054600181600116156101000203166002900480601f016020809104026020016040519081016040528092919081815260200182805460018160011615610100020316600290048015612f9a5780601f10612f6f57610100808354040283529160200191612f9a565b820191906000526020600020905b815481529060010190602001808311612f7d57829003601f168201915b505050505090806001018054600181600116156101000203166002900480601f0160208091040260200160405190810160405280929190818152602001828054600181600116156101000203166002900480156130385780601f1061300d57610100808354040283529160200191613038565b820191906000526020600020905b81548152906001019060200180831161301b57829003601f168201915b505050505090806002015490806003015490806004018054600181600116156101000203166002900480601f0160208091040260200160405190810160405280929190818152602001828054600181600116156101000203166002900480156130e25780601f106130b7576101008083540402835291602001916130e2565b820191906000526020600020905b8154815290600101906020018083116130c557829003601f168201915b505050505090806005018054600181600116156101000203166002900480601f0160208091040260200160405190810160405280929190818152602001828054600181600116156101000203166002900480156131805780601f1061315557610100808354040283529160200191613180565b820191906000526020600020905b81548152906001019060200180831161316357829003601f168201915b505050505090806006018054600181600116156101000203166002900480601f01602080910402602001604051908101604052809291908181526020018280546001816001161561010002031660029004801561321e5780601f106131f35761010080835404028352916020019161321e565b820191906000526020600020905b81548152906001019060200180831161320157829003601f168201915b505050505090806007018054600181600116156101000203166002900480601f0160208091040260200160405190810160405280929190818152602001828054600181600116156101000203166002900480156132bc5780601f10613291576101008083540402835291602001916132bc565b820191906000526020600020905b81548152906001019060200180831161329f57829003601f168201915b5050505050905088565b60075481565b6000803373ffffffffffffffffffffffffffffffffffffffff1673ffffffffffffffffffffffffffffffffffffffff16815260200190815260200160002060000160009054906101000a900473ffffffffffffffffffffffffffffffffffffffff1673ffffffffffffffffffffffffffffffffffffffff163373ffffffffffffffffffffffffffffffffffffffff161415151561336857600080fd5b60e0604051908101604052803373ffffffffffffffffffffffffffffffffffffffff1681526020018f81526020018e81526020018d60018111156133a857fe5b81526020018c60058111156133b957fe5b8152602001878152602001828152506000803373ffffffffffffffffffffffffffffffffffffffff1673ffffffffffffffffffffffffffffffffffffffff16815260200190815260200160002060008201518160000160006101000a81548173ffffffffffffffffffffffffffffffffffffffff021916908373ffffffffffffffffffffffffffffffffffffffff16021790555060208201518160010190805190602001906134699291906139bd565b5060408201518160020190805190602001906134869291906139bd565b5060608201518160030160006101000a81548160ff021916908360018111156134ab57fe5b021790555060808201518160030160016101000a81548160ff021916908360058111156134d457fe5b021790555060a08201518160040190805190602001906134f59291906139bd565b5060c0820151816005019080519060200190613512929190613a3d565b50905050610100604051908101604052808b81526020018a815260200189815260200188815260200186815260200185815260200184815260200183815250600160003373ffffffffffffffffffffffffffffffffffffffff1673ffffffffffffffffffffffffffffffffffffffff16815260200190815260200160002060008201518160000190805190602001906135ac9291906139bd565b5060208201518160010190805190602001906135c99291906139bd565b50604082015181600201556060820151816003015560808201518160040190805190602001906135fa9291906139bd565b5060a08201518160050190805190602001906136179291906139bd565b5060c08201518160060190805190602001906136349291906139bd565b5060e08201518160070190805190602001906136519291906139bd565b509050505050505050505050505050505050565b80600a908051906020019061367b92919061393d565b5050565b6006602052806000526040600020600091509050806000018054600181600116156101000203166002900480601f01602080910402602001604051908101604052809291908181526020018280546001816001161561010002031660029004801561372b5780601f106137005761010080835404028352916020019161372b565b820191906000526020600020905b81548152906001019060200180831161370e57829003601f168201915b505050505090806001018054600181600116156101000203166002900480601f0160208091040260200160405190810160405280929190818152602001828054600181600116156101000203166002900480156137c95780601f1061379e576101008083540402835291602001916137c9565b820191906000526020600020905b8154815290600101906020018083116137ac57829003601f168201915b505050505090806002018054600181600116156101000203166002900480601f0160208091040260200160405190810160405280929190818152602001828054600181600116156101000203166002900480156138675780601f1061383c57610100808354040283529160200191613867565b820191906000526020600020905b81548152906001019060200180831161384a57829003601f168201915b5050505050908060030160009054906101000a900460ff16905084565b60606000808373ffffffffffffffffffffffffffffffffffffffff1673ffffffffffffffffffffffffffffffffffffffff16815260200190815260200160002060050180548060200260200160405190810160405280929190818152602001828054801561391157602002820191906000526020600020905b8154815260200190600101908083116138fd575b50505050509050919050565b60056020528060005260406000206000915054906101000a900460ff1681565b828054600181600116156101000203166002900490600052602060002090601f016020900481019282601f1061397e57805160ff19168380011785556139ac565b828001600101855582156139ac579182015b828111156139ab578251825591602001919060010190613990565b5b5090506139b99190613a8a565b5090565b828054600181600116156101000203166002900490600052602060002090601f016020900481019282601f106139fe57805160ff1916838001178555613a2c565b82800160010185558215613a2c579182015b82811115613a2b578251825591602001919060010190613a10565b5b509050613a399190613a8a565b5090565b828054828255906000526020600020908101928215613a79579160200282015b82811115613a78578251825591602001919060010190613a5d565b5b509050613a869190613a8a565b5090565b613aac91905b80821115613aa8576000816000905550600101613a90565b5090565b905600a165627a7a72305820f809dc875d1e57eae5f32a88db3efbcbc383ced9dc202cf87515fe662609427a0029",
  "source": "pragma solidity ^0.4.23;\n\ncontract EMR {\n\n  enum SexType { MALE, FEMALE }\n  enum MaritalType { single, married, remarried, separated, divorced, widowed }\n  enum AppointmentStat { CREATED, APPROVED, REJECTED, PENDING, DONE }\n\n  struct Patient {\n    address client;\n    string fullname;\n    string dob;\n    SexType sex;\n    MaritalType marital;\n    string email;\n    uint256[] medicalreport;\n  }\n\n  struct PatientDetail {\n    string postal_address;\n    string city;\n    uint256 postal_code;\n    uint256 contact_phone;\n    string occupation;\n    string language;\n    string ethnicity;\n    string race;\n  }\n\n  struct PatientInsurance {\n    string provider;\n    string plan_name;\n    string policy_number;\n  }\n\n  struct PatientEmployer {\n    string employer_name;\n    string employer_address;\n    string employer_city;\n    string employer_state;\n    string employer_postal_code;\n    string employer_country;\n  }\n\n  struct Appointment{\n    uint256 index;\n    address patient;\n    uint256 datetime;\n    AppointmentStat stat;\n    string remark;\n  }\n\n  struct MedicalReport{\n    string docname;\n    string docpath;\n    string docdesp;\n    bool isActive;\n  }\n  \n  mapping(address => Patient) public patients;\n  mapping(address => PatientDetail) public patientdetails;\n  mapping(address => PatientEmployer) public patientemployers;\n  mapping(address => PatientInsurance) public patientinsurances;\n\n  \n  mapping(uint256 => Appointment) public appointments;\n  mapping(address => bool) public administrator;\n\n  mapping(uint256 => MedicalReport) public medicalreports;\n\n  uint256 public AppointmentIndex;\n  uint256 public MedicalReportIndex;\n\n  address public owner;\n  \n  \n  string public version = \"0.0.1\";\n\n  event eAppointmentAdd(uint256 indexed index, address sender);\n\n  event eAppointmentUpdate(uint256 indexed index, address sender);\n\n\n  modifier isOwner() {\n    if (msg.sender == owner) _;\n  }\n\n  modifier isAdministrator(address _admin) {\n    if (administrator[_admin] == true) _;\n  }\n\n  constructor() public {\n    owner = msg.sender;\n    administrator[msg.sender] = true;\n  }\n\n  function UpdateVersion (string _version) public {\n    version = _version;\n  }\n\n  function SetAdministrator (address _admin) public {\n    require(msg.sender == owner);\n    require(!administrator[_admin]);\n\n    administrator[_admin] = true;\n  }\n\n  /*\n  * Sign Up Patients\n  */\n\n  function SignupPatient(string _fullname,\n      string _dob,\n      SexType _sex,\n      MaritalType _marital,\n      string _postal_address,\n      string _city,\n      uint256 _postal_code,\n      uint256 _contact_phone,\n      string _email,\n      string _occupation,\n      string _language,\n      string _ethnicity,\n      string _race,\n      uint256[] _medicalreport) public {\n\n    require(msg.sender != patients[msg.sender].client);\n\n    patients[msg.sender] = Patient(msg.sender, \n      _fullname, \n      _dob, \n      _sex, \n      _marital, \n      _email, \n      _medicalreport);\n    \n    patientdetails[msg.sender] = PatientDetail(_postal_address,\n      _city,\n      _postal_code,\n      _contact_phone,\n      _occupation,\n      _language,\n      _ethnicity,\n      _race);\n  }\n\n\n  function PatientUpdate(string _fullname,\n      string _dob,\n      SexType _sex,\n      MaritalType _marital,\n      string _postal_address,\n      string _city,\n      uint256 _postal_code,\n      uint256 _contact_phone,\n      string _email,\n      string _occupation,\n      string _language,\n      string _ethnicity,\n      string _race) public {\n\n    require(msg.sender == patients[msg.sender].client);\n\n    patients[msg.sender].fullname = _fullname;\n    patients[msg.sender].dob = _dob;\n    patients[msg.sender].sex = _sex;\n    patients[msg.sender].marital = _marital;\n    patients[msg.sender].email = _email;\n    \n    patientdetails[msg.sender].postal_address = _postal_address;\n    patientdetails[msg.sender].city = _city;\n    patientdetails[msg.sender].postal_code = _postal_code;\n    patientdetails[msg.sender].contact_phone = _contact_phone;\n    patientdetails[msg.sender].occupation = _occupation;\n    patientdetails[msg.sender].language = _language;\n    patientdetails[msg.sender].ethnicity = _ethnicity;\n    patientdetails[msg.sender].race = _race;\n\n  }\n\n\n  function AppointmentAdd(uint256 _datetime, \n    AppointmentStat _stat, string _remark) public {\n    \n    require(msg.sender == patients[msg.sender].client);\n    require(_datetime > now);\n    \n    AppointmentIndex++;\n\n    appointments[AppointmentIndex] = Appointment(AppointmentIndex,\n      msg.sender,\n      _datetime,\n      _stat,\n      _remark);\n\n    emit eAppointmentAdd(AppointmentIndex, msg.sender);\n\n  }\n\n  function AppointmentUpdate(uint256 _AppointmentIndex, \n    AppointmentStat _stat) public {\n\n    require(administrator[msg.sender] == true || msg.sender == patients[msg.sender].client);\n    require(_AppointmentIndex > 0);\n    require(_AppointmentIndex <= AppointmentIndex);\n\n    appointments[_AppointmentIndex].stat = _stat;\n    //appointments[_AppointmentIndex].remark = _remark;\n\n    emit eAppointmentUpdate(_AppointmentIndex, msg.sender);\n\n  }\n\n  function AppointmentGet() public view returns (uint256[]){\n    uint256[] memory results;\n    uint256 count;\n    for (uint256 i = 1; i <= AppointmentIndex; i++) {\n        if(appointments[i].patient == msg.sender)\n        {\n          //results.push(appointments[i].index);\n          results[count] = i;\n          count++;\n        }\n    }\n    return results;\n  }\n\n\n  function MedicalReportAdd(string _docname,\n    string _docpath,\n    string _docdesp) public {\n\n      require(msg.sender == patients[msg.sender].client, \"Sender has to be a patient\");\n\n      MedicalReportIndex++;\n      medicalreports[MedicalReportIndex] = MedicalReport(_docname, \n        _docpath, \n        _docdesp, \n        true);\n\n      patients[msg.sender].medicalreport.push(MedicalReportIndex);\n\n  }\n\n  function MedicalReportGet(address _addr) public view returns(uint256[]){\n    return patients[_addr].medicalreport;\n  }\n\n  /*function MedicalReportUpdate(uint256 _index, string _docname,\n    string _docpath,\n    string _docdesp, bool _isActive) public {\n\n      require(msg.sender == patients[msg.sender].client, \"Is a client\");\n      require(_index > 0, \"Valid index number passed\");\n      //require(_index == medicalreports[msg.sender].index, \"Correct Index number passed.\");\n\n      //medicalreports[patient].docname = _docname;\n      //medicalreports[patient].docpath =  _docpath;\n      //medicalreports[patient].docdesp =  _docdesp;\n      //medicalreports[patient].isActive = _isActive;\n\n  }*/\n\n  function kill() public {\n    require(msg.sender == owner);\n    selfdestruct(msg.sender);\n  }\n\n\n\n\n}\n",
  "sourcePath": "C:\\xampp\\htdocs\\BLOCKCHAIN\\Blockchain-EMR\\contracts\\EMR.sol",
  "compiler": {
    "name": "solc",
    "version": "0.4.24+commit.e67f0147.Emscripten.clang"
  },
  "schemaVersion": "2.0.1",
  "updatedAt": "2018-09-26T17:51:43.610Z"
}