{
  "contractName": "EMR",
  "abi": [
    {
      "constant": true,
      "inputs": [
        {
          "name": "",
          "type": "address"
        }
      ],
      "name": "patients",
      "outputs": [
        {
          "name": "client",
          "type": "address"
        },
        {
          "name": "fullname",
          "type": "string"
        },
        {
          "name": "dob",
          "type": "string"
        },
        {
          "name": "sex",
          "type": "uint8"
        },
        {
          "name": "marital",
          "type": "uint8"
        },
        {
          "name": "email",
          "type": "string"
        }
      ],
      "payable": false,
      "stateMutability": "view",
      "type": "function"
    },
    {
      "constant": true,
      "inputs": [
        {
          "name": "",
          "type": "uint256"
        }
      ],
      "name": "appointments",
      "outputs": [
        {
          "name": "index",
          "type": "uint256"
        },
        {
          "name": "patient",
          "type": "address"
        },
        {
          "name": "datetime",
          "type": "uint256"
        },
        {
          "name": "stat",
          "type": "uint8"
        },
        {
          "name": "remark",
          "type": "string"
        }
      ],
      "payable": false,
      "stateMutability": "view",
      "type": "function"
    },
    {
      "constant": true,
      "inputs": [],
      "name": "MedicalReportIndex",
      "outputs": [
        {
          "name": "",
          "type": "uint256"
        }
      ],
      "payable": false,
      "stateMutability": "view",
      "type": "function"
    },
    {
      "constant": true,
      "inputs": [
        {
          "name": "",
          "type": "address"
        }
      ],
      "name": "patientinsurances",
      "outputs": [
        {
          "name": "provider",
          "type": "string"
        },
        {
          "name": "plan_name",
          "type": "string"
        },
        {
          "name": "policy_number",
          "type": "string"
        }
      ],
      "payable": false,
      "stateMutability": "view",
      "type": "function"
    },
    {
      "constant": true,
      "inputs": [],
      "name": "version",
      "outputs": [
        {
          "name": "",
          "type": "string"
        }
      ],
      "payable": false,
      "stateMutability": "view",
      "type": "function"
    },
    {
      "constant": true,
      "inputs": [
        {
          "name": "",
          "type": "address"
        }
      ],
      "name": "patientemployers",
      "outputs": [
        {
          "name": "employer_name",
          "type": "string"
        },
        {
          "name": "employer_address",
          "type": "string"
        },
        {
          "name": "employer_city",
          "type": "string"
        },
        {
          "name": "employer_state",
          "type": "string"
        },
        {
          "name": "employer_postal_code",
          "type": "string"
        },
        {
          "name": "employer_country",
          "type": "string"
        }
      ],
      "payable": false,
      "stateMutability": "view",
      "type": "function"
    },
    {
      "constant": true,
      "inputs": [],
      "name": "owner",
      "outputs": [
        {
          "name": "",
          "type": "address"
        }
      ],
      "payable": false,
      "stateMutability": "view",
      "type": "function"
    },
    {
      "constant": true,
      "inputs": [
        {
          "name": "",
          "type": "address"
        }
      ],
      "name": "patientdetails",
      "outputs": [
        {
          "name": "postal_address",
          "type": "string"
        },
        {
          "name": "city",
          "type": "string"
        },
        {
          "name": "postal_code",
          "type": "uint256"
        },
        {
          "name": "contact_phone",
          "type": "uint256"
        },
        {
          "name": "occupation",
          "type": "string"
        },
        {
          "name": "language",
          "type": "string"
        },
        {
          "name": "ethnicity",
          "type": "string"
        },
        {
          "name": "race",
          "type": "string"
        }
      ],
      "payable": false,
      "stateMutability": "view",
      "type": "function"
    },
    {
      "constant": true,
      "inputs": [],
      "name": "AppointmentIndex",
      "outputs": [
        {
          "name": "",
          "type": "uint256"
        }
      ],
      "payable": false,
      "stateMutability": "view",
      "type": "function"
    },
    {
      "constant": true,
      "inputs": [
        {
          "name": "",
          "type": "uint256"
        }
      ],
      "name": "medicalreports",
      "outputs": [
        {
          "name": "docname",
          "type": "string"
        },
        {
          "name": "docpath",
          "type": "string"
        },
        {
          "name": "docdesp",
          "type": "string"
        },
        {
          "name": "isActive",
          "type": "bool"
        }
      ],
      "payable": false,
      "stateMutability": "view",
      "type": "function"
    },
    {
      "constant": true,
      "inputs": [
        {
          "name": "",
          "type": "address"
        }
      ],
      "name": "administrator",
      "outputs": [
        {
          "name": "",
          "type": "bool"
        }
      ],
      "payable": false,
      "stateMutability": "view",
      "type": "function"
    },
    {
      "inputs": [],
      "payable": false,
      "stateMutability": "nonpayable",
      "type": "constructor"
    },
    {
      "anonymous": false,
      "inputs": [
        {
          "indexed": true,
          "name": "index",
          "type": "uint256"
        },
        {
          "indexed": false,
          "name": "sender",
          "type": "address"
        }
      ],
      "name": "eAppointmentAdd",
      "type": "event"
    },
    {
      "anonymous": false,
      "inputs": [
        {
          "indexed": true,
          "name": "index",
          "type": "uint256"
        },
        {
          "indexed": false,
          "name": "sender",
          "type": "address"
        }
      ],
      "name": "eAppointmentUpdate",
      "type": "event"
    },
    {
      "constant": false,
      "inputs": [
        {
          "name": "_version",
          "type": "string"
        }
      ],
      "name": "UpdateVersion",
      "outputs": [],
      "payable": false,
      "stateMutability": "nonpayable",
      "type": "function"
    },
    {
      "constant": false,
      "inputs": [
        {
          "name": "_admin",
          "type": "address"
        }
      ],
      "name": "SetAdministrator",
      "outputs": [],
      "payable": false,
      "stateMutability": "nonpayable",
      "type": "function"
    },
    {
      "constant": false,
      "inputs": [
        {
          "name": "_fullname",
          "type": "string"
        },
        {
          "name": "_dob",
          "type": "string"
        },
        {
          "name": "_sex",
          "type": "uint8"
        },
        {
          "name": "_marital",
          "type": "uint8"
        },
        {
          "name": "_email",
          "type": "string"
        },
        {
          "name": "_medicalreport",
          "type": "uint256[]"
        }
      ],
      "name": "SignupPatient",
      "outputs": [],
      "payable": false,
      "stateMutability": "nonpayable",
      "type": "function"
    },
    {
      "constant": false,
      "inputs": [
        {
          "name": "_postal_address",
          "type": "string"
        },
        {
          "name": "_city",
          "type": "string"
        },
        {
          "name": "_postal_code",
          "type": "uint256"
        },
        {
          "name": "_contact_phone",
          "type": "uint256"
        },
        {
          "name": "_occupation",
          "type": "string"
        },
        {
          "name": "_language",
          "type": "string"
        },
        {
          "name": "_ethnicity",
          "type": "string"
        },
        {
          "name": "_race",
          "type": "string"
        }
      ],
      "name": "SavePatientDetails",
      "outputs": [],
      "payable": false,
      "stateMutability": "nonpayable",
      "type": "function"
    },
    {
      "constant": false,
      "inputs": [
        {
          "name": "_fullname",
          "type": "string"
        },
        {
          "name": "_dob",
          "type": "string"
        },
        {
          "name": "_sex",
          "type": "uint8"
        },
        {
          "name": "_marital",
          "type": "uint8"
        },
        {
          "name": "_email",
          "type": "string"
        }
      ],
      "name": "PatientUpdate",
      "outputs": [],
      "payable": false,
      "stateMutability": "nonpayable",
      "type": "function"
    },
    {
      "constant": false,
      "inputs": [
        {
          "name": "_postal_address",
          "type": "string"
        },
        {
          "name": "_city",
          "type": "string"
        },
        {
          "name": "_postal_code",
          "type": "uint256"
        },
        {
          "name": "_contact_phone",
          "type": "uint256"
        },
        {
          "name": "_occupation",
          "type": "string"
        },
        {
          "name": "_language",
          "type": "string"
        },
        {
          "name": "_ethnicity",
          "type": "string"
        },
        {
          "name": "_race",
          "type": "string"
        }
      ],
      "name": "PatientDetailUpdate",
      "outputs": [],
      "payable": false,
      "stateMutability": "nonpayable",
      "type": "function"
    },
    {
      "constant": false,
      "inputs": [
        {
          "name": "_datetime",
          "type": "uint256"
        },
        {
          "name": "_stat",
          "type": "uint8"
        },
        {
          "name": "_remark",
          "type": "string"
        }
      ],
      "name": "AppointmentAdd",
      "outputs": [],
      "payable": false,
      "stateMutability": "nonpayable",
      "type": "function"
    },
    {
      "constant": false,
      "inputs": [
        {
          "name": "_AppointmentIndex",
          "type": "uint256"
        },
        {
          "name": "_stat",
          "type": "uint8"
        }
      ],
      "name": "AppointmentUpdate",
      "outputs": [],
      "payable": false,
      "stateMutability": "nonpayable",
      "type": "function"
    },
    {
      "constant": true,
      "inputs": [],
      "name": "AppointmentGet",
      "outputs": [
        {
          "name": "",
          "type": "uint256[]"
        }
      ],
      "payable": false,
      "stateMutability": "view",
      "type": "function"
    },
    {
      "constant": false,
      "inputs": [
        {
          "name": "_docname",
          "type": "string"
        },
        {
          "name": "_docpath",
          "type": "string"
        },
        {
          "name": "_docdesp",
          "type": "string"
        }
      ],
      "name": "MedicalReportAdd",
      "outputs": [],
      "payable": false,
      "stateMutability": "nonpayable",
      "type": "function"
    },
    {
      "constant": true,
      "inputs": [
        {
          "name": "_addr",
          "type": "address"
        }
      ],
      "name": "MedicalReportGet",
      "outputs": [
        {
          "name": "",
          "type": "uint256[]"
        }
      ],
      "payable": false,
      "stateMutability": "view",
      "type": "function"
    },
    {
      "constant": false,
      "inputs": [],
      "name": "kill",
      "outputs": [],
      "payable": false,
      "stateMutability": "nonpayable",
      "type": "function"
    }
  ],
  "bytecode": "0x60806040526040805190810160405280600581526020017f302e302e31000000000000000000000000000000000000000000000000000000815250600a908051906020019062000051929190620000ff565b503480156200005f57600080fd5b5033600960006101000a81548173ffffffffffffffffffffffffffffffffffffffff021916908373ffffffffffffffffffffffffffffffffffffffff1602179055506001600560003373ffffffffffffffffffffffffffffffffffffffff1673ffffffffffffffffffffffffffffffffffffffff16815260200190815260200160002060006101000a81548160ff021916908315150217905550620001ae565b828054600181600116156101000203166002900490600052602060002090601f016020900481019282601f106200014257805160ff191683800117855562000173565b8280016001018555821562000173579182015b828111156200017257825182559160200191906001019062000155565b5b50905062000182919062000186565b5090565b620001ab91905b80821115620001a75760008160009055506001016200018d565b5090565b90565b613c7180620001be6000396000f300608060405260043610610133576000357c0100000000000000000000000000000000000000000000000000000000900463ffffffff168063021be28c14610138578063048df673146101725780630869cfbc1461034d57806312dc90131461053e5780632018ff151461063a57806321ad6c3a1461067d578063301956bc1461078c57806341c0e1b5146109675780634c32abbf1461097e5780634cbf3f6a146109a957806354fd4d5014610b3d5780635e98811614610bcd57806363fe51a914610c395780636fa350b514610cb95780638da5cb5b14610f91578063925755ff14610fe8578063982d5ef3146110dd5780639cdf8e82146113c3578063c96e8304146113ee578063d22a225514611457578063e1d17218146115e0578063f4fe9fad14611678578063f7b2b0ca146116d3575b600080fd5b34801561014457600080fd5b5061017060048036038101908080359060200190929190803560ff169060200190929190505050611825565b005b34801561017e57600080fd5b5061034b600480360381019080803590602001908201803590602001908080601f0160208091040260200160405190810160405280939291908181526020018383808284378201915050505050509192919290803590602001908201803590602001908080601f01602080910402602001604051908101604052809392919081815260200183838082843782019150505050505091929192908035906020019092919080359060200190929190803590602001908201803590602001908080601f0160208091040260200160405190810160405280939291908181526020018383808284378201915050505050509192919290803590602001908201803590602001908080601f0160208091040260200160405190810160405280939291908181526020018383808284378201915050505050509192919290803590602001908201803590602001908080601f0160208091040260200160405190810160405280939291908181526020018383808284378201915050505050509192919290803590602001908201803590602001908080601f01602080910402602001604051908101604052809392919081815260200183838082843782019150505050505091929192905050506119da565b005b34801561035957600080fd5b5061038e600480360381019080803573ffffffffffffffffffffffffffffffffffffffff169060200190929190505050611bbe565b604051808773ffffffffffffffffffffffffffffffffffffffff1673ffffffffffffffffffffffffffffffffffffffff16815260200180602001806020018660018111156103d857fe5b60ff1681526020018560058111156103ec57fe5b60ff16815260200180602001848103845289818151815260200191508051906020019080838360005b83811015610430578082015181840152602081019050610415565b50505050905090810190601f16801561045d5780820380516001836020036101000a031916815260200191505b50848103835288818151815260200191508051906020019080838360005b8381101561049657808201518184015260208101905061047b565b50505050905090810190601f1680156104c35780820380516001836020036101000a031916815260200191505b50848103825285818151815260200191508051906020019080838360005b838110156104fc5780820151818401526020810190506104e1565b50505050905090810190601f1680156105295780820380516001836020036101000a031916815260200191505b50995050505050505050505060405180910390f35b34801561054a57600080fd5b5061056960048036038101908080359060200190929190505050611dfc565b604051808681526020018573ffffffffffffffffffffffffffffffffffffffff1673ffffffffffffffffffffffffffffffffffffffff1681526020018481526020018360048111156105b757fe5b60ff16815260200180602001828103825283818151815260200191508051906020019080838360005b838110156105fb5780820151818401526020810190506105e0565b50505050905090810190601f1680156106285780820380516001836020036101000a031916815260200191505b50965050505050505060405180910390f35b34801561064657600080fd5b5061067b600480360381019080803573ffffffffffffffffffffffffffffffffffffffff169060200190929190505050611ef7565b005b34801561068957600080fd5b5061078a600480360381019080803590602001908201803590602001908080601f0160208091040260200160405190810160405280939291908181526020018383808284378201915050505050509192919290803590602001908201803590602001908080601f0160208091040260200160405190810160405280939291908181526020018383808284378201915050505050509192919290803560ff169060200190929190803560ff169060200190929190803590602001908201803590602001908080601f0160208091040260200160405190810160405280939291908181526020018383808284378201915050505050509192919290505050612007565b005b34801561079857600080fd5b50610965600480360381019080803590602001908201803590602001908080601f0160208091040260200160405190810160405280939291908181526020018383808284378201915050505050509192919290803590602001908201803590602001908080601f01602080910402602001604051908101604052809392919081815260200183838082843782019150505050505091929192908035906020019092919080359060200190929190803590602001908201803590602001908080601f0160208091040260200160405190810160405280939291908181526020018383808284378201915050505050509192919290803590602001908201803590602001908080601f0160208091040260200160405190810160405280939291908181526020018383808284378201915050505050509192919290803590602001908201803590602001908080601f0160208091040260200160405190810160405280939291908181526020018383808284378201915050505050509192919290803590602001908201803590602001908080601f016020809104026020016040519081016040528093929190818152602001838380828437820191505050505050919291929050505061226f565b005b34801561097357600080fd5b5061097c6125ac565b005b34801561098a57600080fd5b50610993612621565b6040518082815260200191505060405180910390f35b3480156109b557600080fd5b506109ea600480360381019080803573ffffffffffffffffffffffffffffffffffffffff169060200190929190505050612627565b60405180806020018060200180602001848103845287818151815260200191508051906020019080838360005b83811015610a32578082015181840152602081019050610a17565b50505050905090810190601f168015610a5f5780820380516001836020036101000a031916815260200191505b50848103835286818151815260200191508051906020019080838360005b83811015610a98578082015181840152602081019050610a7d565b50505050905090810190601f168015610ac55780820380516001836020036101000a031916815260200191505b50848103825285818151815260200191508051906020019080838360005b83811015610afe578082015181840152602081019050610ae3565b50505050905090810190601f168015610b2b5780820380516001836020036101000a031916815260200191505b50965050505050505060405180910390f35b348015610b4957600080fd5b50610b52612819565b6040518080602001828103825283818151815260200191508051906020019080838360005b83811015610b92578082015181840152602081019050610b77565b50505050905090810190601f168015610bbf5780820380516001836020036101000a031916815260200191505b509250505060405180910390f35b348015610bd957600080fd5b50610be26128b7565b6040518080602001828103825283818151815260200191508051906020019060200280838360005b83811015610c25578082015181840152602081019050610c0a565b505050509050019250505060405180910390f35b348015610c4557600080fd5b50610cb760048036038101908080359060200190929190803560ff169060200190929190803590602001908201803590602001908080601f0160208091040260200160405190810160405280939291908181526020018383808284378201915050505050509192919290505050612973565b005b348015610cc557600080fd5b50610cfa600480360381019080803573ffffffffffffffffffffffffffffffffffffffff169060200190929190505050612b9d565b6040518080602001806020018060200180602001806020018060200187810387528d818151815260200191508051906020019080838360005b83811015610d4e578082015181840152602081019050610d33565b50505050905090810190601f168015610d7b5780820380516001836020036101000a031916815260200191505b5087810386528c818151815260200191508051906020019080838360005b83811015610db4578082015181840152602081019050610d99565b50505050905090810190601f168015610de15780820380516001836020036101000a031916815260200191505b5087810385528b818151815260200191508051906020019080838360005b83811015610e1a578082015181840152602081019050610dff565b50505050905090810190601f168015610e475780820380516001836020036101000a031916815260200191505b5087810384528a818151815260200191508051906020019080838360005b83811015610e80578082015181840152602081019050610e65565b50505050905090810190601f168015610ead5780820380516001836020036101000a031916815260200191505b50878103835289818151815260200191508051906020019080838360005b83811015610ee6578082015181840152602081019050610ecb565b50505050905090810190601f168015610f135780820380516001836020036101000a031916815260200191505b50878103825288818151815260200191508051906020019080838360005b83811015610f4c578082015181840152602081019050610f31565b50505050905090810190601f168015610f795780820380516001836020036101000a031916815260200191505b509c5050505050505050505050505060405180910390f35b348015610f9d57600080fd5b50610fa6612f69565b604051808273ffffffffffffffffffffffffffffffffffffffff1673ffffffffffffffffffffffffffffffffffffffff16815260200191505060405180910390f35b348015610ff457600080fd5b506110db600480360381019080803590602001908201803590602001908080601f0160208091040260200160405190810160405280939291908181526020018383808284378201915050505050509192919290803590602001908201803590602001908080601f0160208091040260200160405190810160405280939291908181526020018383808284378201915050505050509192919290803590602001908201803590602001908080601f0160208091040260200160405190810160405280939291908181526020018383808284378201915050505050509192919290505050612f8f565b005b3480156110e957600080fd5b5061111e600480360381019080803573ffffffffffffffffffffffffffffffffffffffff1690602001909291905050506131cb565b6040518080602001806020018981526020018881526020018060200180602001806020018060200187810387528f818151815260200191508051906020019080838360005b8381101561117e578082015181840152602081019050611163565b50505050905090810190601f1680156111ab5780820380516001836020036101000a031916815260200191505b5087810386528e818151815260200191508051906020019080838360005b838110156111e45780820151818401526020810190506111c9565b50505050905090810190601f1680156112115780820380516001836020036101000a031916815260200191505b5087810385528b818151815260200191508051906020019080838360005b8381101561124a57808201518184015260208101905061122f565b50505050905090810190601f1680156112775780820380516001836020036101000a031916815260200191505b5087810384528a818151815260200191508051906020019080838360005b838110156112b0578082015181840152602081019050611295565b50505050905090810190601f1680156112dd5780820380516001836020036101000a031916815260200191505b50878103835289818151815260200191508051906020019080838360005b838110156113165780820151818401526020810190506112fb565b50505050905090810190601f1680156113435780820380516001836020036101000a031916815260200191505b50878103825288818151815260200191508051906020019080838360005b8381101561137c578082015181840152602081019050611361565b50505050905090810190601f1680156113a95780820380516001836020036101000a031916815260200191505b509e50505050505050505050505050505060405180910390f35b3480156113cf57600080fd5b506113d86135a3565b6040518082815260200191505060405180910390f35b3480156113fa57600080fd5b50611455600480360381019080803590602001908201803590602001908080601f01602080910402602001604051908101604052809392919081815260200183838082843782019150505050505091929192905050506135a9565b005b34801561146357600080fd5b50611482600480360381019080803590602001909291905050506135c3565b6040518080602001806020018060200185151515158152602001848103845288818151815260200191508051906020019080838360005b838110156114d45780820151818401526020810190506114b9565b50505050905090810190601f1680156115015780820380516001836020036101000a031916815260200191505b50848103835287818151815260200191508051906020019080838360005b8381101561153a57808201518184015260208101905061151f565b50505050905090810190601f1680156115675780820380516001836020036101000a031916815260200191505b50848103825286818151815260200191508051906020019080838360005b838110156115a0578082015181840152602081019050611585565b50505050905090810190601f1680156115cd5780820380516001836020036101000a031916815260200191505b5097505050505050505060405180910390f35b3480156115ec57600080fd5b50611621600480360381019080803573ffffffffffffffffffffffffffffffffffffffff1690602001909291905050506137c8565b6040518080602001828103825283818151815260200191508051906020019060200280838360005b83811015611664578082015181840152602081019050611649565b505050509050019250505060405180910390f35b34801561168457600080fd5b506116b9600480360381019080803573ffffffffffffffffffffffffffffffffffffffff169060200190929190505050613861565b604051808215151515815260200191505060405180910390f35b3480156116df57600080fd5b50611823600480360381019080803590602001908201803590602001908080601f0160208091040260200160405190810160405280939291908181526020018383808284378201915050505050509192919290803590602001908201803590602001908080601f0160208091040260200160405190810160405280939291908181526020018383808284378201915050505050509192919290803560ff169060200190929190803560ff169060200190929190803590602001908201803590602001908080601f016020809104026020016040519081016040528093929190818152602001838380828437820191505050505050919291929080359060200190820180359060200190808060200260200160405190810160405280939291908181526020018383602002808284378201915050505050509192919290505050613881565b005b60011515600560003373ffffffffffffffffffffffffffffffffffffffff1673ffffffffffffffffffffffffffffffffffffffff16815260200190815260200160002060009054906101000a900460ff161515148061191057506000803373ffffffffffffffffffffffffffffffffffffffff1673ffffffffffffffffffffffffffffffffffffffff16815260200190815260200160002060000160009054906101000a900473ffffffffffffffffffffffffffffffffffffffff1673ffffffffffffffffffffffffffffffffffffffff163373ffffffffffffffffffffffffffffffffffffffff16145b151561191b57600080fd5b60008211151561192a57600080fd5b600754821115151561193b57600080fd5b806004600084815260200190815260200160002060030160006101000a81548160ff0219169083600481111561196d57fe5b0217905550817faed36e024505e25c12abbd5805f9a03e43edc723e22f4f50bb4f14a6e9ef1ada33604051808273ffffffffffffffffffffffffffffffffffffffff1673ffffffffffffffffffffffffffffffffffffffff16815260200191505060405180910390a25050565b6000803373ffffffffffffffffffffffffffffffffffffffff1673ffffffffffffffffffffffffffffffffffffffff16815260200190815260200160002060000160009054906101000a900473ffffffffffffffffffffffffffffffffffffffff1673ffffffffffffffffffffffffffffffffffffffff163373ffffffffffffffffffffffffffffffffffffffff16141515611a7557600080fd5b6101006040519081016040528089815260200188815260200187815260200186815260200185815260200184815260200183815260200182815250600160003373ffffffffffffffffffffffffffffffffffffffff1673ffffffffffffffffffffffffffffffffffffffff1681526020019081526020016000206000820151816000019080519060200190611b0b929190613ad3565b506020820151816001019080519060200190611b28929190613ad3565b5060408201518160020155606082015181600301556080820151816004019080519060200190611b59929190613ad3565b5060a0820151816005019080519060200190611b76929190613ad3565b5060c0820151816006019080519060200190611b93929190613ad3565b5060e0820151816007019080519060200190611bb0929190613ad3565b509050505050505050505050565b60006020528060005260406000206000915090508060000160009054906101000a900473ffffffffffffffffffffffffffffffffffffffff1690806001018054600181600116156101000203166002900480601f016020809104026020016040519081016040528092919081815260200182805460018160011615610100020316600290048015611c905780601f10611c6557610100808354040283529160200191611c90565b820191906000526020600020905b815481529060010190602001808311611c7357829003601f168201915b505050505090806002018054600181600116156101000203166002900480601f016020809104026020016040519081016040528092919081815260200182805460018160011615610100020316600290048015611d2e5780601f10611d0357610100808354040283529160200191611d2e565b820191906000526020600020905b815481529060010190602001808311611d1157829003601f168201915b5050505050908060030160009054906101000a900460ff16908060030160019054906101000a900460ff1690806004018054600181600116156101000203166002900480601f016020809104026020016040519081016040528092919081815260200182805460018160011615610100020316600290048015611df25780601f10611dc757610100808354040283529160200191611df2565b820191906000526020600020905b815481529060010190602001808311611dd557829003601f168201915b5050505050905086565b60046020528060005260406000206000915090508060000154908060010160009054906101000a900473ffffffffffffffffffffffffffffffffffffffff16908060020154908060030160009054906101000a900460ff1690806004018054600181600116156101000203166002900480601f016020809104026020016040519081016040528092919081815260200182805460018160011615610100020316600290048015611eed5780601f10611ec257610100808354040283529160200191611eed565b820191906000526020600020905b815481529060010190602001808311611ed057829003601f168201915b5050505050905085565b600960009054906101000a900473ffffffffffffffffffffffffffffffffffffffff1673ffffffffffffffffffffffffffffffffffffffff163373ffffffffffffffffffffffffffffffffffffffff16141515611f5357600080fd5b600560008273ffffffffffffffffffffffffffffffffffffffff1673ffffffffffffffffffffffffffffffffffffffff16815260200190815260200160002060009054906101000a900460ff16151515611fac57600080fd5b6001600560008373ffffffffffffffffffffffffffffffffffffffff1673ffffffffffffffffffffffffffffffffffffffff16815260200190815260200160002060006101000a81548160ff02191690831515021790555050565b6000803373ffffffffffffffffffffffffffffffffffffffff1673ffffffffffffffffffffffffffffffffffffffff16815260200190815260200160002060000160009054906101000a900473ffffffffffffffffffffffffffffffffffffffff1673ffffffffffffffffffffffffffffffffffffffff163373ffffffffffffffffffffffffffffffffffffffff161415156120a257600080fd5b846000803373ffffffffffffffffffffffffffffffffffffffff1673ffffffffffffffffffffffffffffffffffffffff16815260200190815260200160002060010190805190602001906120f7929190613b53565b50836000803373ffffffffffffffffffffffffffffffffffffffff1673ffffffffffffffffffffffffffffffffffffffff168152602001908152602001600020600201908051906020019061214d929190613b53565b50826000803373ffffffffffffffffffffffffffffffffffffffff1673ffffffffffffffffffffffffffffffffffffffff16815260200190815260200160002060030160006101000a81548160ff021916908360018111156121ab57fe5b0217905550816000803373ffffffffffffffffffffffffffffffffffffffff1673ffffffffffffffffffffffffffffffffffffffff16815260200190815260200160002060030160016101000a81548160ff0219169083600581111561220d57fe5b0217905550806000803373ffffffffffffffffffffffffffffffffffffffff1673ffffffffffffffffffffffffffffffffffffffff1681526020019081526020016000206004019080519060200190612267929190613b53565b505050505050565b6000803373ffffffffffffffffffffffffffffffffffffffff1673ffffffffffffffffffffffffffffffffffffffff16815260200190815260200160002060000160009054906101000a900473ffffffffffffffffffffffffffffffffffffffff1673ffffffffffffffffffffffffffffffffffffffff163373ffffffffffffffffffffffffffffffffffffffff1614151561230a57600080fd5b87600160003373ffffffffffffffffffffffffffffffffffffffff1673ffffffffffffffffffffffffffffffffffffffff1681526020019081526020016000206000019080519060200190612360929190613b53565b5086600160003373ffffffffffffffffffffffffffffffffffffffff1673ffffffffffffffffffffffffffffffffffffffff16815260200190815260200160002060010190805190602001906123b7929190613b53565b5085600160003373ffffffffffffffffffffffffffffffffffffffff1673ffffffffffffffffffffffffffffffffffffffff1681526020019081526020016000206002018190555084600160003373ffffffffffffffffffffffffffffffffffffffff1673ffffffffffffffffffffffffffffffffffffffff1681526020019081526020016000206003018190555083600160003373ffffffffffffffffffffffffffffffffffffffff1673ffffffffffffffffffffffffffffffffffffffff168152602001908152602001600020600401908051906020019061249c929190613b53565b5082600160003373ffffffffffffffffffffffffffffffffffffffff1673ffffffffffffffffffffffffffffffffffffffff16815260200190815260200160002060050190805190602001906124f3929190613b53565b5081600160003373ffffffffffffffffffffffffffffffffffffffff1673ffffffffffffffffffffffffffffffffffffffff168152602001908152602001600020600601908051906020019061254a929190613b53565b5080600160003373ffffffffffffffffffffffffffffffffffffffff1673ffffffffffffffffffffffffffffffffffffffff16815260200190815260200160002060070190805190602001906125a1929190613b53565b505050505050505050565b600960009054906101000a900473ffffffffffffffffffffffffffffffffffffffff1673ffffffffffffffffffffffffffffffffffffffff163373ffffffffffffffffffffffffffffffffffffffff1614151561260857600080fd5b3373ffffffffffffffffffffffffffffffffffffffff16ff5b60085481565b6003602052806000526040600020600091509050806000018054600181600116156101000203166002900480601f0160208091040260200160405190810160405280929190818152602001828054600181600116156101000203166002900480156126d35780601f106126a8576101008083540402835291602001916126d3565b820191906000526020600020905b8154815290600101906020018083116126b657829003601f168201915b505050505090806001018054600181600116156101000203166002900480601f0160208091040260200160405190810160405280929190818152602001828054600181600116156101000203166002900480156127715780601f1061274657610100808354040283529160200191612771565b820191906000526020600020905b81548152906001019060200180831161275457829003601f168201915b505050505090806002018054600181600116156101000203166002900480601f01602080910402602001604051908101604052809291908181526020018280546001816001161561010002031660029004801561280f5780601f106127e45761010080835404028352916020019161280f565b820191906000526020600020905b8154815290600101906020018083116127f257829003601f168201915b5050505050905083565b600a8054600181600116156101000203166002900480601f0160208091040260200160405190810160405280929190818152602001828054600181600116156101000203166002900480156128af5780601f10612884576101008083540402835291602001916128af565b820191906000526020600020905b81548152906001019060200180831161289257829003601f168201915b505050505081565b606080600080600190505b6007548111151561296a573373ffffffffffffffffffffffffffffffffffffffff166004600083815260200190815260200160002060010160009054906101000a900473ffffffffffffffffffffffffffffffffffffffff1673ffffffffffffffffffffffffffffffffffffffff16141561295d5780838381518110151561294657fe5b906020019060200201818152505081806001019250505b80806001019150506128c2565b82935050505090565b6000803373ffffffffffffffffffffffffffffffffffffffff1673ffffffffffffffffffffffffffffffffffffffff16815260200190815260200160002060000160009054906101000a900473ffffffffffffffffffffffffffffffffffffffff1673ffffffffffffffffffffffffffffffffffffffff163373ffffffffffffffffffffffffffffffffffffffff16141515612a0e57600080fd5b4283111515612a1c57600080fd5b60076000815480929190600101919050555060a06040519081016040528060075481526020013373ffffffffffffffffffffffffffffffffffffffff168152602001848152602001836004811115612a7057fe5b8152602001828152506004600060075481526020019081526020016000206000820151816000015560208201518160010160006101000a81548173ffffffffffffffffffffffffffffffffffffffff021916908373ffffffffffffffffffffffffffffffffffffffff1602179055506040820151816002015560608201518160030160006101000a81548160ff02191690836004811115612b0d57fe5b02179055506080820151816004019080519060200190612b2e929190613ad3565b509050506007547f11bc75e1c881a356fd788845fca53e42abfc6d0fcf1f28e90fc6b518d4163e1733604051808273ffffffffffffffffffffffffffffffffffffffff1673ffffffffffffffffffffffffffffffffffffffff16815260200191505060405180910390a2505050565b6002602052806000526040600020600091509050806000018054600181600116156101000203166002900480601f016020809104026020016040519081016040528092919081815260200182805460018160011615610100020316600290048015612c495780601f10612c1e57610100808354040283529160200191612c49565b820191906000526020600020905b815481529060010190602001808311612c2c57829003601f168201915b505050505090806001018054600181600116156101000203166002900480601f016020809104026020016040519081016040528092919081815260200182805460018160011615610100020316600290048015612ce75780601f10612cbc57610100808354040283529160200191612ce7565b820191906000526020600020905b815481529060010190602001808311612cca57829003601f168201915b505050505090806002018054600181600116156101000203166002900480601f016020809104026020016040519081016040528092919081815260200182805460018160011615610100020316600290048015612d855780601f10612d5a57610100808354040283529160200191612d85565b820191906000526020600020905b815481529060010190602001808311612d6857829003601f168201915b505050505090806003018054600181600116156101000203166002900480601f016020809104026020016040519081016040528092919081815260200182805460018160011615610100020316600290048015612e235780601f10612df857610100808354040283529160200191612e23565b820191906000526020600020905b815481529060010190602001808311612e0657829003601f168201915b505050505090806004018054600181600116156101000203166002900480601f016020809104026020016040519081016040528092919081815260200182805460018160011615610100020316600290048015612ec15780601f10612e9657610100808354040283529160200191612ec1565b820191906000526020600020905b815481529060010190602001808311612ea457829003601f168201915b505050505090806005018054600181600116156101000203166002900480601f016020809104026020016040519081016040528092919081815260200182805460018160011615610100020316600290048015612f5f5780601f10612f3457610100808354040283529160200191612f5f565b820191906000526020600020905b815481529060010190602001808311612f4257829003601f168201915b5050505050905086565b600960009054906101000a900473ffffffffffffffffffffffffffffffffffffffff1681565b6000803373ffffffffffffffffffffffffffffffffffffffff1673ffffffffffffffffffffffffffffffffffffffff16815260200190815260200160002060000160009054906101000a900473ffffffffffffffffffffffffffffffffffffffff1673ffffffffffffffffffffffffffffffffffffffff163373ffffffffffffffffffffffffffffffffffffffff16141515613093576040517f08c379a000000000000000000000000000000000000000000000000000000000815260040180806020018281038252601a8152602001807f53656e6465722068617320746f20626520612070617469656e7400000000000081525060200191505060405180910390fd5b6008600081548092919060010191905055506080604051908101604052808481526020018381526020018281526020016001151581525060066000600854815260200190815260200160002060008201518160000190805190602001906130fb929190613ad3565b506020820151816001019080519060200190613118929190613ad3565b506040820151816002019080519060200190613135929190613ad3565b5060608201518160030160006101000a81548160ff0219169083151502179055509050506000803373ffffffffffffffffffffffffffffffffffffffff1673ffffffffffffffffffffffffffffffffffffffff1681526020019081526020016000206005016008549080600181540180825580915050906001820390600052602060002001600090919290919091505550505050565b6001602052806000526040600020600091509050806000018054600181600116156101000203166002900480601f0160208091040260200160405190810160405280929190818152602001828054600181600116156101000203166002900480156132775780601f1061324c57610100808354040283529160200191613277565b820191906000526020600020905b81548152906001019060200180831161325a57829003601f168201915b505050505090806001018054600181600116156101000203166002900480601f0160208091040260200160405190810160405280929190818152602001828054600181600116156101000203166002900480156133155780601f106132ea57610100808354040283529160200191613315565b820191906000526020600020905b8154815290600101906020018083116132f857829003601f168201915b505050505090806002015490806003015490806004018054600181600116156101000203166002900480601f0160208091040260200160405190810160405280929190818152602001828054600181600116156101000203166002900480156133bf5780601f10613394576101008083540402835291602001916133bf565b820191906000526020600020905b8154815290600101906020018083116133a257829003601f168201915b505050505090806005018054600181600116156101000203166002900480601f01602080910402602001604051908101604052809291908181526020018280546001816001161561010002031660029004801561345d5780601f106134325761010080835404028352916020019161345d565b820191906000526020600020905b81548152906001019060200180831161344057829003601f168201915b505050505090806006018054600181600116156101000203166002900480601f0160208091040260200160405190810160405280929190818152602001828054600181600116156101000203166002900480156134fb5780601f106134d0576101008083540402835291602001916134fb565b820191906000526020600020905b8154815290600101906020018083116134de57829003601f168201915b505050505090806007018054600181600116156101000203166002900480601f0160208091040260200160405190810160405280929190818152602001828054600181600116156101000203166002900480156135995780601f1061356e57610100808354040283529160200191613599565b820191906000526020600020905b81548152906001019060200180831161357c57829003601f168201915b5050505050905088565b60075481565b80600a90805190602001906135bf929190613b53565b5050565b6006602052806000526040600020600091509050806000018054600181600116156101000203166002900480601f01602080910402602001604051908101604052809291908181526020018280546001816001161561010002031660029004801561366f5780601f106136445761010080835404028352916020019161366f565b820191906000526020600020905b81548152906001019060200180831161365257829003601f168201915b505050505090806001018054600181600116156101000203166002900480601f01602080910402602001604051908101604052809291908181526020018280546001816001161561010002031660029004801561370d5780601f106136e25761010080835404028352916020019161370d565b820191906000526020600020905b8154815290600101906020018083116136f057829003601f168201915b505050505090806002018054600181600116156101000203166002900480601f0160208091040260200160405190810160405280929190818152602001828054600181600116156101000203166002900480156137ab5780601f10613780576101008083540402835291602001916137ab565b820191906000526020600020905b81548152906001019060200180831161378e57829003601f168201915b5050505050908060030160009054906101000a900460ff16905084565b60606000808373ffffffffffffffffffffffffffffffffffffffff1673ffffffffffffffffffffffffffffffffffffffff16815260200190815260200160002060050180548060200260200160405190810160405280929190818152602001828054801561385557602002820191906000526020600020905b815481526020019060010190808311613841575b50505050509050919050565b60056020528060005260406000206000915054906101000a900460ff1681565b6000803373ffffffffffffffffffffffffffffffffffffffff1673ffffffffffffffffffffffffffffffffffffffff16815260200190815260200160002060000160009054906101000a900473ffffffffffffffffffffffffffffffffffffffff1673ffffffffffffffffffffffffffffffffffffffff163373ffffffffffffffffffffffffffffffffffffffff161415151561391d57600080fd5b60e0604051908101604052803373ffffffffffffffffffffffffffffffffffffffff16815260200187815260200186815260200185600181111561395d57fe5b815260200184600581111561396e57fe5b8152602001838152602001828152506000803373ffffffffffffffffffffffffffffffffffffffff1673ffffffffffffffffffffffffffffffffffffffff16815260200190815260200160002060008201518160000160006101000a81548173ffffffffffffffffffffffffffffffffffffffff021916908373ffffffffffffffffffffffffffffffffffffffff1602179055506020820151816001019080519060200190613a1e929190613ad3565b506040820151816002019080519060200190613a3b929190613ad3565b5060608201518160030160006101000a81548160ff02191690836001811115613a6057fe5b021790555060808201518160030160016101000a81548160ff02191690836005811115613a8957fe5b021790555060a0820151816004019080519060200190613aaa929190613ad3565b5060c0820151816005019080519060200190613ac7929190613bd3565b50905050505050505050565b828054600181600116156101000203166002900490600052602060002090601f016020900481019282601f10613b1457805160ff1916838001178555613b42565b82800160010185558215613b42579182015b82811115613b41578251825591602001919060010190613b26565b5b509050613b4f9190613c20565b5090565b828054600181600116156101000203166002900490600052602060002090601f016020900481019282601f10613b9457805160ff1916838001178555613bc2565b82800160010185558215613bc2579182015b82811115613bc1578251825591602001919060010190613ba6565b5b509050613bcf9190613c20565b5090565b828054828255906000526020600020908101928215613c0f579160200282015b82811115613c0e578251825591602001919060010190613bf3565b5b509050613c1c9190613c20565b5090565b613c4291905b80821115613c3e576000816000905550600101613c26565b5090565b905600a165627a7a72305820cca9568f911a797ec0e8f6a96cda815651e9291ba167c02571aa3fd2c9baeaa10029",
  "source": "pragma solidity ^0.4.23;\n\ncontract EMR {\n\n  enum SexType { MALE, FEMALE }\n  enum MaritalType { single, married, remarried, separated, divorced, widowed }\n  enum AppointmentStat { CREATED, APPROVED, REJECTED, BILLING, CLOSE }\n\n  struct Patient {\n    address client;\n    string fullname;\n    string dob;\n    SexType sex;\n    MaritalType marital;\n    string email;\n    uint256[] medicalreport;\n  }\n\n  struct PatientDetail {\n    string postal_address;\n    string city;\n    uint256 postal_code;\n    uint256 contact_phone;\n    string occupation;\n    string language;\n    string ethnicity;\n    string race;\n  }\n\n  struct PatientInsurance {\n    string provider;\n    string plan_name;\n    string policy_number;\n  }\n\n  struct PatientEmployer {\n    string employer_name;\n    string employer_address;\n    string employer_city;\n    string employer_state;\n    string employer_postal_code;\n    string employer_country;\n  }\n\n  struct Appointment{\n    uint256 index;\n    address patient;\n    uint256 datetime;\n    AppointmentStat stat;\n    string remark;\n  }\n\n  struct MedicalReport{\n    string docname;\n    string docpath;\n    string docdesp;\n    bool isActive;\n  }\n  \n  mapping(address => Patient) public patients;\n  mapping(address => PatientDetail) public patientdetails;\n  mapping(address => PatientEmployer) public patientemployers;\n  mapping(address => PatientInsurance) public patientinsurances;\n\n  mapping(uint256 => Appointment) public appointments;\n  mapping(address => bool) public administrator;\n\n  mapping(uint256 => MedicalReport) public medicalreports;\n\n  uint256 public AppointmentIndex;\n  uint256 public MedicalReportIndex;\n\n  address public owner;\n  \n  \n  string public version = \"0.0.1\";\n\n  event eAppointmentAdd(uint256 indexed index, address sender);\n\n  event eAppointmentUpdate(uint256 indexed index, address sender);\n\n\n  modifier isOwner() {\n    if (msg.sender == owner) _;\n  }\n\n  modifier isAdministrator(address _admin) {\n    if (administrator[_admin] == true) _;\n  }\n\n  constructor() public {\n    owner = msg.sender;\n    administrator[msg.sender] = true;\n  }\n\n  function UpdateVersion (string _version) public {\n    version = _version;\n  }\n\n  function SetAdministrator (address _admin) public {\n    require(msg.sender == owner);\n    require(!administrator[_admin]);\n\n    administrator[_admin] = true;\n  }\n\n  /*\n  * Sign Up Patients\n  */\n\n  function SignupPatient(string _fullname,\n      string _dob,\n      SexType _sex,\n      MaritalType _marital,\n      string _email,\n      uint256[] _medicalreport) public {\n\n    require(msg.sender != patients[msg.sender].client);\n\n    patients[msg.sender] = Patient(msg.sender, \n      _fullname, \n      _dob, \n      _sex, \n      _marital, \n      _email, \n      _medicalreport);\n\n  }\n\n  function SavePatientDetails(string _postal_address,\n      string _city,\n      uint256 _postal_code,\n      uint256 _contact_phone,\n      string _occupation,\n      string _language,\n      string _ethnicity,\n      string _race) public {  \n\n    require(msg.sender == patients[msg.sender].client);\n\n    patientdetails[msg.sender] = PatientDetail(_postal_address,\n      _city,\n      _postal_code,\n      _contact_phone,\n      _occupation,\n      _language,\n      _ethnicity,\n      _race);\n\n  }\n\n\n  function PatientUpdate(string _fullname,\n      string _dob,\n      SexType _sex,\n      MaritalType _marital,\n      string _email) public {\n\n    require(msg.sender == patients[msg.sender].client);\n\n    patients[msg.sender].fullname = _fullname;\n    patients[msg.sender].dob = _dob;\n    patients[msg.sender].sex = _sex;\n    patients[msg.sender].marital = _marital;\n    patients[msg.sender].email = _email;\n\n  }\n\n  function PatientDetailUpdate(string _postal_address,\n      string _city,\n      uint256 _postal_code,\n      uint256 _contact_phone,\n      string _occupation,\n      string _language,\n      string _ethnicity,\n      string _race) public {\n\n    require(msg.sender == patients[msg.sender].client);\n\n    patientdetails[msg.sender].postal_address = _postal_address;\n    patientdetails[msg.sender].city = _city;\n    patientdetails[msg.sender].postal_code = _postal_code;\n    patientdetails[msg.sender].contact_phone = _contact_phone;\n    patientdetails[msg.sender].occupation = _occupation;\n    patientdetails[msg.sender].language = _language;\n    patientdetails[msg.sender].ethnicity = _ethnicity;\n    patientdetails[msg.sender].race = _race;\n\n  }\n\n  \n  function AppointmentAdd(uint256 _datetime, \n    AppointmentStat _stat, string _remark) public {\n    \n    require(msg.sender == patients[msg.sender].client);\n    require(_datetime > now);\n    \n    AppointmentIndex++;\n\n    appointments[AppointmentIndex] = Appointment(AppointmentIndex,\n      msg.sender,\n      _datetime,\n      _stat,\n      _remark);\n\n    emit eAppointmentAdd(AppointmentIndex, msg.sender);\n\n  }\n\n  function AppointmentUpdate(uint256 _AppointmentIndex, \n    AppointmentStat _stat) public {\n\n    require(administrator[msg.sender] == true || msg.sender == patients[msg.sender].client);\n    require(_AppointmentIndex > 0);\n    require(_AppointmentIndex <= AppointmentIndex);\n\n    appointments[_AppointmentIndex].stat = _stat;\n    //appointments[_AppointmentIndex].remark = _remark;\n\n    emit eAppointmentUpdate(_AppointmentIndex, msg.sender);\n\n  }\n\n  function AppointmentGet() public view returns (uint256[]){\n    uint256[] memory results;\n    uint256 count;\n    for (uint256 i = 1; i <= AppointmentIndex; i++) {\n        if(appointments[i].patient == msg.sender)\n        {\n          //results.push(appointments[i].index);\n          results[count] = i;\n          count++;\n        }\n    }\n    return results;\n  }\n\n\n  function MedicalReportAdd(string _docname,\n    string _docpath,\n    string _docdesp) public {\n\n      require(msg.sender == patients[msg.sender].client, \"Sender has to be a patient\");\n\n      MedicalReportIndex++;\n      medicalreports[MedicalReportIndex] = MedicalReport(_docname, \n        _docpath, \n        _docdesp, \n        true);\n\n      patients[msg.sender].medicalreport.push(MedicalReportIndex);\n\n  }\n\n  function MedicalReportGet(address _addr) public view returns(uint256[]){\n    return patients[_addr].medicalreport;\n  }\n\n  /*function MedicalReportUpdate(uint256 _index, string _docname,\n    string _docpath,\n    string _docdesp, bool _isActive) public {\n\n      require(msg.sender == patients[msg.sender].client, \"Is a client\");\n      require(_index > 0, \"Valid index number passed\");\n      //require(_index == medicalreports[msg.sender].index, \"Correct Index number passed.\");\n\n      //medicalreports[patient].docname = _docname;\n      //medicalreports[patient].docpath =  _docpath;\n      //medicalreports[patient].docdesp =  _docdesp;\n      //medicalreports[patient].isActive = _isActive;\n\n  }*/\n\n  function kill() public {\n    require(msg.sender == owner);\n    selfdestruct(msg.sender);\n  }\n\n\n\n\n}\n",
  "sourcePath": "C:\\xampp\\htdocs\\BLOCKCHAIN\\Blockchain-EMR\\contracts\\EMR.sol",
  "compiler": {
    "name": "solc",
    "version": "0.4.24+commit.e67f0147.Emscripten.clang"
  },
  "schemaVersion": "2.0.1",
  "updatedAt": "2018-09-28T19:24:12.877Z"
}