{
  "contractName": "EMR",
  "abi": [
    {
      "constant": true,
      "inputs": [
        {
          "name": "",
          "type": "address"
        }
      ],
      "name": "patients",
      "outputs": [
        {
          "name": "client",
          "type": "address"
        },
        {
          "name": "fullname",
          "type": "string"
        },
        {
          "name": "dob",
          "type": "string"
        },
        {
          "name": "sex",
          "type": "uint8"
        },
        {
          "name": "marital",
          "type": "uint8"
        },
        {
          "name": "email",
          "type": "string"
        }
      ],
      "payable": false,
      "stateMutability": "view",
      "type": "function"
    },
    {
      "constant": true,
      "inputs": [
        {
          "name": "",
          "type": "uint256"
        }
      ],
      "name": "appointments",
      "outputs": [
        {
          "name": "index",
          "type": "uint256"
        },
        {
          "name": "patient",
          "type": "address"
        },
        {
          "name": "datetime",
          "type": "uint256"
        },
        {
          "name": "stat",
          "type": "uint8"
        },
        {
          "name": "remark",
          "type": "string"
        }
      ],
      "payable": false,
      "stateMutability": "view",
      "type": "function"
    },
    {
      "constant": true,
      "inputs": [],
      "name": "MedicalReportIndex",
      "outputs": [
        {
          "name": "",
          "type": "uint256"
        }
      ],
      "payable": false,
      "stateMutability": "view",
      "type": "function"
    },
    {
      "constant": true,
      "inputs": [
        {
          "name": "",
          "type": "address"
        }
      ],
      "name": "patientinsurances",
      "outputs": [
        {
          "name": "provider",
          "type": "string"
        },
        {
          "name": "plan_name",
          "type": "string"
        },
        {
          "name": "policy_number",
          "type": "string"
        }
      ],
      "payable": false,
      "stateMutability": "view",
      "type": "function"
    },
    {
      "constant": true,
      "inputs": [],
      "name": "version",
      "outputs": [
        {
          "name": "",
          "type": "string"
        }
      ],
      "payable": false,
      "stateMutability": "view",
      "type": "function"
    },
    {
      "constant": true,
      "inputs": [
        {
          "name": "",
          "type": "address"
        }
      ],
      "name": "patientemployers",
      "outputs": [
        {
          "name": "employer_name",
          "type": "string"
        },
        {
          "name": "employer_address",
          "type": "string"
        },
        {
          "name": "employer_city",
          "type": "string"
        },
        {
          "name": "employer_state",
          "type": "string"
        },
        {
          "name": "employer_postal_code",
          "type": "string"
        },
        {
          "name": "employer_country",
          "type": "string"
        }
      ],
      "payable": false,
      "stateMutability": "view",
      "type": "function"
    },
    {
      "constant": true,
      "inputs": [],
      "name": "owner",
      "outputs": [
        {
          "name": "",
          "type": "address"
        }
      ],
      "payable": false,
      "stateMutability": "view",
      "type": "function"
    },
    {
      "constant": true,
      "inputs": [
        {
          "name": "",
          "type": "address"
        }
      ],
      "name": "patientdetails",
      "outputs": [
        {
          "name": "postal_address",
          "type": "string"
        },
        {
          "name": "city",
          "type": "string"
        },
        {
          "name": "postal_code",
          "type": "uint256"
        },
        {
          "name": "contact_phone",
          "type": "uint256"
        },
        {
          "name": "occupation",
          "type": "string"
        },
        {
          "name": "language",
          "type": "string"
        },
        {
          "name": "ethnicity",
          "type": "string"
        },
        {
          "name": "race",
          "type": "string"
        }
      ],
      "payable": false,
      "stateMutability": "view",
      "type": "function"
    },
    {
      "constant": true,
      "inputs": [],
      "name": "AppointmentIndex",
      "outputs": [
        {
          "name": "",
          "type": "uint256"
        }
      ],
      "payable": false,
      "stateMutability": "view",
      "type": "function"
    },
    {
      "constant": true,
      "inputs": [
        {
          "name": "",
          "type": "uint256"
        }
      ],
      "name": "medicalreports",
      "outputs": [
        {
          "name": "docname",
          "type": "string"
        },
        {
          "name": "docpath",
          "type": "string"
        },
        {
          "name": "docdesp",
          "type": "string"
        },
        {
          "name": "isActive",
          "type": "bool"
        }
      ],
      "payable": false,
      "stateMutability": "view",
      "type": "function"
    },
    {
      "constant": true,
      "inputs": [
        {
          "name": "",
          "type": "address"
        }
      ],
      "name": "administrator",
      "outputs": [
        {
          "name": "",
          "type": "bool"
        }
      ],
      "payable": false,
      "stateMutability": "view",
      "type": "function"
    },
    {
      "inputs": [],
      "payable": false,
      "stateMutability": "nonpayable",
      "type": "constructor"
    },
    {
      "anonymous": false,
      "inputs": [
        {
          "indexed": true,
          "name": "index",
          "type": "uint256"
        },
        {
          "indexed": false,
          "name": "sender",
          "type": "address"
        }
      ],
      "name": "eAppointmentAdd",
      "type": "event"
    },
    {
      "anonymous": false,
      "inputs": [
        {
          "indexed": true,
          "name": "index",
          "type": "uint256"
        },
        {
          "indexed": false,
          "name": "sender",
          "type": "address"
        }
      ],
      "name": "eAppointmentUpdate",
      "type": "event"
    },
    {
      "constant": false,
      "inputs": [
        {
          "name": "_version",
          "type": "string"
        }
      ],
      "name": "UpdateVersion",
      "outputs": [],
      "payable": false,
      "stateMutability": "nonpayable",
      "type": "function"
    },
    {
      "constant": false,
      "inputs": [
        {
          "name": "_admin",
          "type": "address"
        }
      ],
      "name": "SetAdministrator",
      "outputs": [],
      "payable": false,
      "stateMutability": "nonpayable",
      "type": "function"
    },
    {
      "constant": false,
      "inputs": [
        {
          "name": "_fullname",
          "type": "string"
        },
        {
          "name": "_dob",
          "type": "string"
        },
        {
          "name": "_sex",
          "type": "uint8"
        },
        {
          "name": "_marital",
          "type": "uint8"
        },
        {
          "name": "_email",
          "type": "string"
        },
        {
          "name": "_medicalreport",
          "type": "uint256[]"
        }
      ],
      "name": "SignupPatient",
      "outputs": [],
      "payable": false,
      "stateMutability": "nonpayable",
      "type": "function"
    },
    {
      "constant": false,
      "inputs": [
        {
          "name": "_fullname",
          "type": "string"
        },
        {
          "name": "_dob",
          "type": "string"
        },
        {
          "name": "_sex",
          "type": "uint8"
        },
        {
          "name": "_marital",
          "type": "uint8"
        },
        {
          "name": "_email",
          "type": "string"
        }
      ],
      "name": "PatientUpdate",
      "outputs": [],
      "payable": false,
      "stateMutability": "nonpayable",
      "type": "function"
    },
    {
      "constant": false,
      "inputs": [
        {
          "name": "_datetime",
          "type": "uint256"
        },
        {
          "name": "_stat",
          "type": "uint8"
        },
        {
          "name": "_remark",
          "type": "string"
        }
      ],
      "name": "AppointmentAdd",
      "outputs": [],
      "payable": false,
      "stateMutability": "nonpayable",
      "type": "function"
    },
    {
      "constant": false,
      "inputs": [
        {
          "name": "_AppointmentIndex",
          "type": "uint256"
        },
        {
          "name": "_stat",
          "type": "uint8"
        }
      ],
      "name": "AppointmentUpdate",
      "outputs": [],
      "payable": false,
      "stateMutability": "nonpayable",
      "type": "function"
    },
    {
      "constant": true,
      "inputs": [],
      "name": "AppointmentGet",
      "outputs": [
        {
          "name": "",
          "type": "uint256[]"
        }
      ],
      "payable": false,
      "stateMutability": "view",
      "type": "function"
    },
    {
      "constant": false,
      "inputs": [
        {
          "name": "_docname",
          "type": "string"
        },
        {
          "name": "_docpath",
          "type": "string"
        },
        {
          "name": "_docdesp",
          "type": "string"
        }
      ],
      "name": "MedicalReportAdd",
      "outputs": [],
      "payable": false,
      "stateMutability": "nonpayable",
      "type": "function"
    },
    {
      "constant": true,
      "inputs": [
        {
          "name": "_addr",
          "type": "address"
        }
      ],
      "name": "MedicalReportGet",
      "outputs": [
        {
          "name": "",
          "type": "uint256[]"
        }
      ],
      "payable": false,
      "stateMutability": "view",
      "type": "function"
    },
    {
      "constant": false,
      "inputs": [],
      "name": "kill",
      "outputs": [],
      "payable": false,
      "stateMutability": "nonpayable",
      "type": "function"
    }
  ],
  "bytecode": "0x60806040526040805190810160405280600581526020017f302e302e31000000000000000000000000000000000000000000000000000000815250600a908051906020019062000051929190620000ff565b503480156200005f57600080fd5b5033600960006101000a81548173ffffffffffffffffffffffffffffffffffffffff021916908373ffffffffffffffffffffffffffffffffffffffff1602179055506001600560003373ffffffffffffffffffffffffffffffffffffffff1673ffffffffffffffffffffffffffffffffffffffff16815260200190815260200160002060006101000a81548160ff021916908315150217905550620001ae565b828054600181600116156101000203166002900490600052602060002090601f016020900481019282601f106200014257805160ff191683800117855562000173565b8280016001018555821562000173579182015b828111156200017257825182559160200191906001019062000155565b5b50905062000182919062000186565b5090565b620001ab91905b80821115620001a75760008160009055506001016200018d565b5090565b90565b61338480620001be6000396000f30060806040526004361061011d576000357c0100000000000000000000000000000000000000000000000000000000900463ffffffff168063021be28c146101225780630869cfbc1461015c57806312dc90131461034d5780632018ff151461044957806321ad6c3a1461048c57806341c0e1b51461059b5780634c32abbf146105b25780634cbf3f6a146105dd57806354fd4d50146107715780635e9881161461080157806363fe51a91461086d5780636fa350b5146108ed5780638da5cb5b14610bc5578063925755ff14610c1c578063982d5ef314610d115780639cdf8e8214610ff7578063c96e830414611022578063d22a22551461108b578063e1d1721814611214578063f4fe9fad146112ac578063f7b2b0ca14611307575b600080fd5b34801561012e57600080fd5b5061015a60048036038101908080359060200190929190803560ff169060200190929190505050611459565b005b34801561016857600080fd5b5061019d600480360381019080803573ffffffffffffffffffffffffffffffffffffffff16906020019092919050505061160e565b604051808773ffffffffffffffffffffffffffffffffffffffff1673ffffffffffffffffffffffffffffffffffffffff16815260200180602001806020018660018111156101e757fe5b60ff1681526020018560058111156101fb57fe5b60ff16815260200180602001848103845289818151815260200191508051906020019080838360005b8381101561023f578082015181840152602081019050610224565b50505050905090810190601f16801561026c5780820380516001836020036101000a031916815260200191505b50848103835288818151815260200191508051906020019080838360005b838110156102a557808201518184015260208101905061028a565b50505050905090810190601f1680156102d25780820380516001836020036101000a031916815260200191505b50848103825285818151815260200191508051906020019080838360005b8381101561030b5780820151818401526020810190506102f0565b50505050905090810190601f1680156103385780820380516001836020036101000a031916815260200191505b50995050505050505050505060405180910390f35b34801561035957600080fd5b506103786004803603810190808035906020019092919050505061184c565b604051808681526020018573ffffffffffffffffffffffffffffffffffffffff1673ffffffffffffffffffffffffffffffffffffffff1681526020018481526020018360048111156103c657fe5b60ff16815260200180602001828103825283818151815260200191508051906020019080838360005b8381101561040a5780820151818401526020810190506103ef565b50505050905090810190601f1680156104375780820380516001836020036101000a031916815260200191505b50965050505050505060405180910390f35b34801561045557600080fd5b5061048a600480360381019080803573ffffffffffffffffffffffffffffffffffffffff169060200190929190505050611947565b005b34801561049857600080fd5b50610599600480360381019080803590602001908201803590602001908080601f0160208091040260200160405190810160405280939291908181526020018383808284378201915050505050509192919290803590602001908201803590602001908080601f0160208091040260200160405190810160405280939291908181526020018383808284378201915050505050509192919290803560ff169060200190929190803560ff169060200190929190803590602001908201803590602001908080601f0160208091040260200160405190810160405280939291908181526020018383808284378201915050505050509192919290505050611a57565b005b3480156105a757600080fd5b506105b0611cbf565b005b3480156105be57600080fd5b506105c7611d34565b6040518082815260200191505060405180910390f35b3480156105e957600080fd5b5061061e600480360381019080803573ffffffffffffffffffffffffffffffffffffffff169060200190929190505050611d3a565b60405180806020018060200180602001848103845287818151815260200191508051906020019080838360005b8381101561066657808201518184015260208101905061064b565b50505050905090810190601f1680156106935780820380516001836020036101000a031916815260200191505b50848103835286818151815260200191508051906020019080838360005b838110156106cc5780820151818401526020810190506106b1565b50505050905090810190601f1680156106f95780820380516001836020036101000a031916815260200191505b50848103825285818151815260200191508051906020019080838360005b83811015610732578082015181840152602081019050610717565b50505050905090810190601f16801561075f5780820380516001836020036101000a031916815260200191505b50965050505050505060405180910390f35b34801561077d57600080fd5b50610786611f2c565b6040518080602001828103825283818151815260200191508051906020019080838360005b838110156107c65780820151818401526020810190506107ab565b50505050905090810190601f1680156107f35780820380516001836020036101000a031916815260200191505b509250505060405180910390f35b34801561080d57600080fd5b50610816611fca565b6040518080602001828103825283818151815260200191508051906020019060200280838360005b8381101561085957808201518184015260208101905061083e565b505050509050019250505060405180910390f35b34801561087957600080fd5b506108eb60048036038101908080359060200190929190803560ff169060200190929190803590602001908201803590602001908080601f0160208091040260200160405190810160405280939291908181526020018383808284378201915050505050509192919290505050612086565b005b3480156108f957600080fd5b5061092e600480360381019080803573ffffffffffffffffffffffffffffffffffffffff1690602001909291905050506122b0565b6040518080602001806020018060200180602001806020018060200187810387528d818151815260200191508051906020019080838360005b83811015610982578082015181840152602081019050610967565b50505050905090810190601f1680156109af5780820380516001836020036101000a031916815260200191505b5087810386528c818151815260200191508051906020019080838360005b838110156109e85780820151818401526020810190506109cd565b50505050905090810190601f168015610a155780820380516001836020036101000a031916815260200191505b5087810385528b818151815260200191508051906020019080838360005b83811015610a4e578082015181840152602081019050610a33565b50505050905090810190601f168015610a7b5780820380516001836020036101000a031916815260200191505b5087810384528a818151815260200191508051906020019080838360005b83811015610ab4578082015181840152602081019050610a99565b50505050905090810190601f168015610ae15780820380516001836020036101000a031916815260200191505b50878103835289818151815260200191508051906020019080838360005b83811015610b1a578082015181840152602081019050610aff565b50505050905090810190601f168015610b475780820380516001836020036101000a031916815260200191505b50878103825288818151815260200191508051906020019080838360005b83811015610b80578082015181840152602081019050610b65565b50505050905090810190601f168015610bad5780820380516001836020036101000a031916815260200191505b509c5050505050505050505050505060405180910390f35b348015610bd157600080fd5b50610bda61267c565b604051808273ffffffffffffffffffffffffffffffffffffffff1673ffffffffffffffffffffffffffffffffffffffff16815260200191505060405180910390f35b348015610c2857600080fd5b50610d0f600480360381019080803590602001908201803590602001908080601f0160208091040260200160405190810160405280939291908181526020018383808284378201915050505050509192919290803590602001908201803590602001908080601f0160208091040260200160405190810160405280939291908181526020018383808284378201915050505050509192919290803590602001908201803590602001908080601f01602080910402602001604051908101604052809392919081815260200183838082843782019150505050505091929192905050506126a2565b005b348015610d1d57600080fd5b50610d52600480360381019080803573ffffffffffffffffffffffffffffffffffffffff1690602001909291905050506128de565b6040518080602001806020018981526020018881526020018060200180602001806020018060200187810387528f818151815260200191508051906020019080838360005b83811015610db2578082015181840152602081019050610d97565b50505050905090810190601f168015610ddf5780820380516001836020036101000a031916815260200191505b5087810386528e818151815260200191508051906020019080838360005b83811015610e18578082015181840152602081019050610dfd565b50505050905090810190601f168015610e455780820380516001836020036101000a031916815260200191505b5087810385528b818151815260200191508051906020019080838360005b83811015610e7e578082015181840152602081019050610e63565b50505050905090810190601f168015610eab5780820380516001836020036101000a031916815260200191505b5087810384528a818151815260200191508051906020019080838360005b83811015610ee4578082015181840152602081019050610ec9565b50505050905090810190601f168015610f115780820380516001836020036101000a031916815260200191505b50878103835289818151815260200191508051906020019080838360005b83811015610f4a578082015181840152602081019050610f2f565b50505050905090810190601f168015610f775780820380516001836020036101000a031916815260200191505b50878103825288818151815260200191508051906020019080838360005b83811015610fb0578082015181840152602081019050610f95565b50505050905090810190601f168015610fdd5780820380516001836020036101000a031916815260200191505b509e50505050505050505050505050505060405180910390f35b34801561100357600080fd5b5061100c612cb6565b6040518082815260200191505060405180910390f35b34801561102e57600080fd5b50611089600480360381019080803590602001908201803590602001908080601f0160208091040260200160405190810160405280939291908181526020018383808284378201915050505050509192919290505050612cbc565b005b34801561109757600080fd5b506110b660048036038101908080359060200190929190505050612cd6565b6040518080602001806020018060200185151515158152602001848103845288818151815260200191508051906020019080838360005b838110156111085780820151818401526020810190506110ed565b50505050905090810190601f1680156111355780820380516001836020036101000a031916815260200191505b50848103835287818151815260200191508051906020019080838360005b8381101561116e578082015181840152602081019050611153565b50505050905090810190601f16801561119b5780820380516001836020036101000a031916815260200191505b50848103825286818151815260200191508051906020019080838360005b838110156111d45780820151818401526020810190506111b9565b50505050905090810190601f1680156112015780820380516001836020036101000a031916815260200191505b5097505050505050505060405180910390f35b34801561122057600080fd5b50611255600480360381019080803573ffffffffffffffffffffffffffffffffffffffff169060200190929190505050612edb565b6040518080602001828103825283818151815260200191508051906020019060200280838360005b8381101561129857808201518184015260208101905061127d565b505050509050019250505060405180910390f35b3480156112b857600080fd5b506112ed600480360381019080803573ffffffffffffffffffffffffffffffffffffffff169060200190929190505050612f74565b604051808215151515815260200191505060405180910390f35b34801561131357600080fd5b50611457600480360381019080803590602001908201803590602001908080601f0160208091040260200160405190810160405280939291908181526020018383808284378201915050505050509192919290803590602001908201803590602001908080601f0160208091040260200160405190810160405280939291908181526020018383808284378201915050505050509192919290803560ff169060200190929190803560ff169060200190929190803590602001908201803590602001908080601f016020809104026020016040519081016040528093929190818152602001838380828437820191505050505050919291929080359060200190820180359060200190808060200260200160405190810160405280939291908181526020018383602002808284378201915050505050509192919290505050612f94565b005b60011515600560003373ffffffffffffffffffffffffffffffffffffffff1673ffffffffffffffffffffffffffffffffffffffff16815260200190815260200160002060009054906101000a900460ff161515148061154457506000803373ffffffffffffffffffffffffffffffffffffffff1673ffffffffffffffffffffffffffffffffffffffff16815260200190815260200160002060000160009054906101000a900473ffffffffffffffffffffffffffffffffffffffff1673ffffffffffffffffffffffffffffffffffffffff163373ffffffffffffffffffffffffffffffffffffffff16145b151561154f57600080fd5b60008211151561155e57600080fd5b600754821115151561156f57600080fd5b806004600084815260200190815260200160002060030160006101000a81548160ff021916908360048111156115a157fe5b0217905550817faed36e024505e25c12abbd5805f9a03e43edc723e22f4f50bb4f14a6e9ef1ada33604051808273ffffffffffffffffffffffffffffffffffffffff1673ffffffffffffffffffffffffffffffffffffffff16815260200191505060405180910390a25050565b60006020528060005260406000206000915090508060000160009054906101000a900473ffffffffffffffffffffffffffffffffffffffff1690806001018054600181600116156101000203166002900480601f0160208091040260200160405190810160405280929190818152602001828054600181600116156101000203166002900480156116e05780601f106116b5576101008083540402835291602001916116e0565b820191906000526020600020905b8154815290600101906020018083116116c357829003601f168201915b505050505090806002018054600181600116156101000203166002900480601f01602080910402602001604051908101604052809291908181526020018280546001816001161561010002031660029004801561177e5780601f106117535761010080835404028352916020019161177e565b820191906000526020600020905b81548152906001019060200180831161176157829003601f168201915b5050505050908060030160009054906101000a900460ff16908060030160019054906101000a900460ff1690806004018054600181600116156101000203166002900480601f0160208091040260200160405190810160405280929190818152602001828054600181600116156101000203166002900480156118425780601f1061181757610100808354040283529160200191611842565b820191906000526020600020905b81548152906001019060200180831161182557829003601f168201915b5050505050905086565b60046020528060005260406000206000915090508060000154908060010160009054906101000a900473ffffffffffffffffffffffffffffffffffffffff16908060020154908060030160009054906101000a900460ff1690806004018054600181600116156101000203166002900480601f01602080910402602001604051908101604052809291908181526020018280546001816001161561010002031660029004801561193d5780601f106119125761010080835404028352916020019161193d565b820191906000526020600020905b81548152906001019060200180831161192057829003601f168201915b5050505050905085565b600960009054906101000a900473ffffffffffffffffffffffffffffffffffffffff1673ffffffffffffffffffffffffffffffffffffffff163373ffffffffffffffffffffffffffffffffffffffff161415156119a357600080fd5b600560008273ffffffffffffffffffffffffffffffffffffffff1673ffffffffffffffffffffffffffffffffffffffff16815260200190815260200160002060009054906101000a900460ff161515156119fc57600080fd5b6001600560008373ffffffffffffffffffffffffffffffffffffffff1673ffffffffffffffffffffffffffffffffffffffff16815260200190815260200160002060006101000a81548160ff02191690831515021790555050565b6000803373ffffffffffffffffffffffffffffffffffffffff1673ffffffffffffffffffffffffffffffffffffffff16815260200190815260200160002060000160009054906101000a900473ffffffffffffffffffffffffffffffffffffffff1673ffffffffffffffffffffffffffffffffffffffff163373ffffffffffffffffffffffffffffffffffffffff16141515611af257600080fd5b846000803373ffffffffffffffffffffffffffffffffffffffff1673ffffffffffffffffffffffffffffffffffffffff1681526020019081526020016000206001019080519060200190611b479291906131e6565b50836000803373ffffffffffffffffffffffffffffffffffffffff1673ffffffffffffffffffffffffffffffffffffffff1681526020019081526020016000206002019080519060200190611b9d9291906131e6565b50826000803373ffffffffffffffffffffffffffffffffffffffff1673ffffffffffffffffffffffffffffffffffffffff16815260200190815260200160002060030160006101000a81548160ff02191690836001811115611bfb57fe5b0217905550816000803373ffffffffffffffffffffffffffffffffffffffff1673ffffffffffffffffffffffffffffffffffffffff16815260200190815260200160002060030160016101000a81548160ff02191690836005811115611c5d57fe5b0217905550806000803373ffffffffffffffffffffffffffffffffffffffff1673ffffffffffffffffffffffffffffffffffffffff1681526020019081526020016000206004019080519060200190611cb79291906131e6565b505050505050565b600960009054906101000a900473ffffffffffffffffffffffffffffffffffffffff1673ffffffffffffffffffffffffffffffffffffffff163373ffffffffffffffffffffffffffffffffffffffff16141515611d1b57600080fd5b3373ffffffffffffffffffffffffffffffffffffffff16ff5b60085481565b6003602052806000526040600020600091509050806000018054600181600116156101000203166002900480601f016020809104026020016040519081016040528092919081815260200182805460018160011615610100020316600290048015611de65780601f10611dbb57610100808354040283529160200191611de6565b820191906000526020600020905b815481529060010190602001808311611dc957829003601f168201915b505050505090806001018054600181600116156101000203166002900480601f016020809104026020016040519081016040528092919081815260200182805460018160011615610100020316600290048015611e845780601f10611e5957610100808354040283529160200191611e84565b820191906000526020600020905b815481529060010190602001808311611e6757829003601f168201915b505050505090806002018054600181600116156101000203166002900480601f016020809104026020016040519081016040528092919081815260200182805460018160011615610100020316600290048015611f225780601f10611ef757610100808354040283529160200191611f22565b820191906000526020600020905b815481529060010190602001808311611f0557829003601f168201915b5050505050905083565b600a8054600181600116156101000203166002900480601f016020809104026020016040519081016040528092919081815260200182805460018160011615610100020316600290048015611fc25780601f10611f9757610100808354040283529160200191611fc2565b820191906000526020600020905b815481529060010190602001808311611fa557829003601f168201915b505050505081565b606080600080600190505b6007548111151561207d573373ffffffffffffffffffffffffffffffffffffffff166004600083815260200190815260200160002060010160009054906101000a900473ffffffffffffffffffffffffffffffffffffffff1673ffffffffffffffffffffffffffffffffffffffff1614156120705780838381518110151561205957fe5b906020019060200201818152505081806001019250505b8080600101915050611fd5565b82935050505090565b6000803373ffffffffffffffffffffffffffffffffffffffff1673ffffffffffffffffffffffffffffffffffffffff16815260200190815260200160002060000160009054906101000a900473ffffffffffffffffffffffffffffffffffffffff1673ffffffffffffffffffffffffffffffffffffffff163373ffffffffffffffffffffffffffffffffffffffff1614151561212157600080fd5b428311151561212f57600080fd5b60076000815480929190600101919050555060a06040519081016040528060075481526020013373ffffffffffffffffffffffffffffffffffffffff16815260200184815260200183600481111561218357fe5b8152602001828152506004600060075481526020019081526020016000206000820151816000015560208201518160010160006101000a81548173ffffffffffffffffffffffffffffffffffffffff021916908373ffffffffffffffffffffffffffffffffffffffff1602179055506040820151816002015560608201518160030160006101000a81548160ff0219169083600481111561222057fe5b02179055506080820151816004019080519060200190612241929190613266565b509050506007547f11bc75e1c881a356fd788845fca53e42abfc6d0fcf1f28e90fc6b518d4163e1733604051808273ffffffffffffffffffffffffffffffffffffffff1673ffffffffffffffffffffffffffffffffffffffff16815260200191505060405180910390a2505050565b6002602052806000526040600020600091509050806000018054600181600116156101000203166002900480601f01602080910402602001604051908101604052809291908181526020018280546001816001161561010002031660029004801561235c5780601f106123315761010080835404028352916020019161235c565b820191906000526020600020905b81548152906001019060200180831161233f57829003601f168201915b505050505090806001018054600181600116156101000203166002900480601f0160208091040260200160405190810160405280929190818152602001828054600181600116156101000203166002900480156123fa5780601f106123cf576101008083540402835291602001916123fa565b820191906000526020600020905b8154815290600101906020018083116123dd57829003601f168201915b505050505090806002018054600181600116156101000203166002900480601f0160208091040260200160405190810160405280929190818152602001828054600181600116156101000203166002900480156124985780601f1061246d57610100808354040283529160200191612498565b820191906000526020600020905b81548152906001019060200180831161247b57829003601f168201915b505050505090806003018054600181600116156101000203166002900480601f0160208091040260200160405190810160405280929190818152602001828054600181600116156101000203166002900480156125365780601f1061250b57610100808354040283529160200191612536565b820191906000526020600020905b81548152906001019060200180831161251957829003601f168201915b505050505090806004018054600181600116156101000203166002900480601f0160208091040260200160405190810160405280929190818152602001828054600181600116156101000203166002900480156125d45780601f106125a9576101008083540402835291602001916125d4565b820191906000526020600020905b8154815290600101906020018083116125b757829003601f168201915b505050505090806005018054600181600116156101000203166002900480601f0160208091040260200160405190810160405280929190818152602001828054600181600116156101000203166002900480156126725780601f1061264757610100808354040283529160200191612672565b820191906000526020600020905b81548152906001019060200180831161265557829003601f168201915b5050505050905086565b600960009054906101000a900473ffffffffffffffffffffffffffffffffffffffff1681565b6000803373ffffffffffffffffffffffffffffffffffffffff1673ffffffffffffffffffffffffffffffffffffffff16815260200190815260200160002060000160009054906101000a900473ffffffffffffffffffffffffffffffffffffffff1673ffffffffffffffffffffffffffffffffffffffff163373ffffffffffffffffffffffffffffffffffffffff161415156127a6576040517f08c379a000000000000000000000000000000000000000000000000000000000815260040180806020018281038252601a8152602001807f53656e6465722068617320746f20626520612070617469656e7400000000000081525060200191505060405180910390fd5b60086000815480929190600101919050555060806040519081016040528084815260200183815260200182815260200160011515815250600660006008548152602001908152602001600020600082015181600001908051906020019061280e929190613266565b50602082015181600101908051906020019061282b929190613266565b506040820151816002019080519060200190612848929190613266565b5060608201518160030160006101000a81548160ff0219169083151502179055509050506000803373ffffffffffffffffffffffffffffffffffffffff1673ffffffffffffffffffffffffffffffffffffffff1681526020019081526020016000206005016008549080600181540180825580915050906001820390600052602060002001600090919290919091505550505050565b6001602052806000526040600020600091509050806000018054600181600116156101000203166002900480601f01602080910402602001604051908101604052809291908181526020018280546001816001161561010002031660029004801561298a5780601f1061295f5761010080835404028352916020019161298a565b820191906000526020600020905b81548152906001019060200180831161296d57829003601f168201915b505050505090806001018054600181600116156101000203166002900480601f016020809104026020016040519081016040528092919081815260200182805460018160011615610100020316600290048015612a285780601f106129fd57610100808354040283529160200191612a28565b820191906000526020600020905b815481529060010190602001808311612a0b57829003601f168201915b505050505090806002015490806003015490806004018054600181600116156101000203166002900480601f016020809104026020016040519081016040528092919081815260200182805460018160011615610100020316600290048015612ad25780601f10612aa757610100808354040283529160200191612ad2565b820191906000526020600020905b815481529060010190602001808311612ab557829003601f168201915b505050505090806005018054600181600116156101000203166002900480601f016020809104026020016040519081016040528092919081815260200182805460018160011615610100020316600290048015612b705780601f10612b4557610100808354040283529160200191612b70565b820191906000526020600020905b815481529060010190602001808311612b5357829003601f168201915b505050505090806006018054600181600116156101000203166002900480601f016020809104026020016040519081016040528092919081815260200182805460018160011615610100020316600290048015612c0e5780601f10612be357610100808354040283529160200191612c0e565b820191906000526020600020905b815481529060010190602001808311612bf157829003601f168201915b505050505090806007018054600181600116156101000203166002900480601f016020809104026020016040519081016040528092919081815260200182805460018160011615610100020316600290048015612cac5780601f10612c8157610100808354040283529160200191612cac565b820191906000526020600020905b815481529060010190602001808311612c8f57829003601f168201915b5050505050905088565b60075481565b80600a9080519060200190612cd29291906131e6565b5050565b6006602052806000526040600020600091509050806000018054600181600116156101000203166002900480601f016020809104026020016040519081016040528092919081815260200182805460018160011615610100020316600290048015612d825780601f10612d5757610100808354040283529160200191612d82565b820191906000526020600020905b815481529060010190602001808311612d6557829003601f168201915b505050505090806001018054600181600116156101000203166002900480601f016020809104026020016040519081016040528092919081815260200182805460018160011615610100020316600290048015612e205780601f10612df557610100808354040283529160200191612e20565b820191906000526020600020905b815481529060010190602001808311612e0357829003601f168201915b505050505090806002018054600181600116156101000203166002900480601f016020809104026020016040519081016040528092919081815260200182805460018160011615610100020316600290048015612ebe5780601f10612e9357610100808354040283529160200191612ebe565b820191906000526020600020905b815481529060010190602001808311612ea157829003601f168201915b5050505050908060030160009054906101000a900460ff16905084565b60606000808373ffffffffffffffffffffffffffffffffffffffff1673ffffffffffffffffffffffffffffffffffffffff168152602001908152602001600020600501805480602002602001604051908101604052809291908181526020018280548015612f6857602002820191906000526020600020905b815481526020019060010190808311612f54575b50505050509050919050565b60056020528060005260406000206000915054906101000a900460ff1681565b6000803373ffffffffffffffffffffffffffffffffffffffff1673ffffffffffffffffffffffffffffffffffffffff16815260200190815260200160002060000160009054906101000a900473ffffffffffffffffffffffffffffffffffffffff1673ffffffffffffffffffffffffffffffffffffffff163373ffffffffffffffffffffffffffffffffffffffff161415151561303057600080fd5b60e0604051908101604052803373ffffffffffffffffffffffffffffffffffffffff16815260200187815260200186815260200185600181111561307057fe5b815260200184600581111561308157fe5b8152602001838152602001828152506000803373ffffffffffffffffffffffffffffffffffffffff1673ffffffffffffffffffffffffffffffffffffffff16815260200190815260200160002060008201518160000160006101000a81548173ffffffffffffffffffffffffffffffffffffffff021916908373ffffffffffffffffffffffffffffffffffffffff1602179055506020820151816001019080519060200190613131929190613266565b50604082015181600201908051906020019061314e929190613266565b5060608201518160030160006101000a81548160ff0219169083600181111561317357fe5b021790555060808201518160030160016101000a81548160ff0219169083600581111561319c57fe5b021790555060a08201518160040190805190602001906131bd929190613266565b5060c08201518160050190805190602001906131da9291906132e6565b50905050505050505050565b828054600181600116156101000203166002900490600052602060002090601f016020900481019282601f1061322757805160ff1916838001178555613255565b82800160010185558215613255579182015b82811115613254578251825591602001919060010190613239565b5b5090506132629190613333565b5090565b828054600181600116156101000203166002900490600052602060002090601f016020900481019282601f106132a757805160ff19168380011785556132d5565b828001600101855582156132d5579182015b828111156132d45782518255916020019190600101906132b9565b5b5090506132e29190613333565b5090565b828054828255906000526020600020908101928215613322579160200282015b82811115613321578251825591602001919060010190613306565b5b50905061332f9190613333565b5090565b61335591905b80821115613351576000816000905550600101613339565b5090565b905600a165627a7a723058203ce8d1ae871191178cc628437e9232e07492a9b96bfd7efab40f099371b1f6d90029",
  "source": "pragma solidity ^0.4.23;\n\ncontract EMR {\n\n  enum SexType { MALE, FEMALE }\n  enum MaritalType { single, married, remarried, separated, divorced, widowed }\n  enum AppointmentStat { CREATED, APPROVED, REJECTED, PENDING, DONE }\n\n  struct Patient {\n    address client;\n    string fullname;\n    string dob;\n    SexType sex;\n    MaritalType marital;\n    string email;\n    uint256[] medicalreport;\n  }\n\n  struct PatientDetail {\n    string postal_address;\n    string city;\n    uint256 postal_code;\n    uint256 contact_phone;\n    string occupation;\n    string language;\n    string ethnicity;\n    string race;\n  }\n\n  struct PatientInsurance {\n    string provider;\n    string plan_name;\n    string policy_number;\n  }\n\n  struct PatientEmployer {\n    string employer_name;\n    string employer_address;\n    string employer_city;\n    string employer_state;\n    string employer_postal_code;\n    string employer_country;\n  }\n\n  struct Appointment{\n    uint256 index;\n    address patient;\n    uint256 datetime;\n    AppointmentStat stat;\n    string remark;\n  }\n\n  struct MedicalReport{\n    string docname;\n    string docpath;\n    string docdesp;\n    bool isActive;\n  }\n  \n  mapping(address => Patient) public patients;\n  mapping(address => PatientDetail) public patientdetails;\n  mapping(address => PatientEmployer) public patientemployers;\n  mapping(address => PatientInsurance) public patientinsurances;\n\n  \n  mapping(uint256 => Appointment) public appointments;\n  mapping(address => bool) public administrator;\n\n  mapping(uint256 => MedicalReport) public medicalreports;\n\n  uint256 public AppointmentIndex;\n  uint256 public MedicalReportIndex;\n\n  address public owner;\n  \n  \n  string public version = \"0.0.1\";\n\n  event eAppointmentAdd(uint256 indexed index, address sender);\n\n  event eAppointmentUpdate(uint256 indexed index, address sender);\n\n\n  modifier isOwner() {\n    if (msg.sender == owner) _;\n  }\n\n  modifier isAdministrator(address _admin) {\n    if (administrator[_admin] == true) _;\n  }\n\n  constructor() public {\n    owner = msg.sender;\n    administrator[msg.sender] = true;\n  }\n\n  function UpdateVersion (string _version) public {\n    version = _version;\n  }\n\n  function SetAdministrator (address _admin) public {\n    require(msg.sender == owner);\n    require(!administrator[_admin]);\n\n    administrator[_admin] = true;\n  }\n\n  /*\n  * Sign Up Patients\n  */\n\n  function SignupPatient(string _fullname,\n      string _dob,\n      SexType _sex,\n      MaritalType _marital,\n      /*string _postal_address,\n      string _city,\n      uint256 _postal_code,\n      uint256 _contact_phone,*/\n      string _email,\n      /*string _occupation,\n      string _language,\n      string _ethnicity,\n      string _race,*/\n      uint256[] _medicalreport) public {\n\n    require(msg.sender != patients[msg.sender].client);\n\n    patients[msg.sender] = Patient(msg.sender, \n      _fullname, \n      _dob, \n      _sex, \n      _marital, \n      _email, \n      _medicalreport);\n    \n    /*patientdetails[msg.sender] = PatientDetail(_postal_address,\n      _city,\n      _postal_code,\n      _contact_phone,\n      _occupation,\n      _language,\n      _ethnicity,\n      _race);*/\n  }\n\n\n  function PatientUpdate(string _fullname,\n      string _dob,\n      SexType _sex,\n      MaritalType _marital,\n      string _email\n      /*string _postal_address,\n      string _city,\n      uint256 _postal_code,\n      uint256 _contact_phone,\n      string _occupation,\n      string _language,\n      string _ethnicity,\n      string _race*/) public {\n\n    require(msg.sender == patients[msg.sender].client);\n\n    patients[msg.sender].fullname = _fullname;\n    patients[msg.sender].dob = _dob;\n    patients[msg.sender].sex = _sex;\n    patients[msg.sender].marital = _marital;\n    patients[msg.sender].email = _email;\n    \n    /*patientdetails[msg.sender].postal_address = _postal_address;\n    patientdetails[msg.sender].city = _city;\n    patientdetails[msg.sender].postal_code = _postal_code;\n    patientdetails[msg.sender].contact_phone = _contact_phone;\n    patientdetails[msg.sender].occupation = _occupation;\n    patientdetails[msg.sender].language = _language;\n    patientdetails[msg.sender].ethnicity = _ethnicity;\n    patientdetails[msg.sender].race = _race;*/\n\n  }\n\n\n  function AppointmentAdd(uint256 _datetime, \n    AppointmentStat _stat, string _remark) public {\n    \n    require(msg.sender == patients[msg.sender].client);\n    require(_datetime > now);\n    \n    AppointmentIndex++;\n\n    appointments[AppointmentIndex] = Appointment(AppointmentIndex,\n      msg.sender,\n      _datetime,\n      _stat,\n      _remark);\n\n    emit eAppointmentAdd(AppointmentIndex, msg.sender);\n\n  }\n\n  function AppointmentUpdate(uint256 _AppointmentIndex, \n    AppointmentStat _stat) public {\n\n    require(administrator[msg.sender] == true || msg.sender == patients[msg.sender].client);\n    require(_AppointmentIndex > 0);\n    require(_AppointmentIndex <= AppointmentIndex);\n\n    appointments[_AppointmentIndex].stat = _stat;\n    //appointments[_AppointmentIndex].remark = _remark;\n\n    emit eAppointmentUpdate(_AppointmentIndex, msg.sender);\n\n  }\n\n  function AppointmentGet() public view returns (uint256[]){\n    uint256[] memory results;\n    uint256 count;\n    for (uint256 i = 1; i <= AppointmentIndex; i++) {\n        if(appointments[i].patient == msg.sender)\n        {\n          //results.push(appointments[i].index);\n          results[count] = i;\n          count++;\n        }\n    }\n    return results;\n  }\n\n\n  function MedicalReportAdd(string _docname,\n    string _docpath,\n    string _docdesp) public {\n\n      require(msg.sender == patients[msg.sender].client, \"Sender has to be a patient\");\n\n      MedicalReportIndex++;\n      medicalreports[MedicalReportIndex] = MedicalReport(_docname, \n        _docpath, \n        _docdesp, \n        true);\n\n      patients[msg.sender].medicalreport.push(MedicalReportIndex);\n\n  }\n\n  function MedicalReportGet(address _addr) public view returns(uint256[]){\n    return patients[_addr].medicalreport;\n  }\n\n  /*function MedicalReportUpdate(uint256 _index, string _docname,\n    string _docpath,\n    string _docdesp, bool _isActive) public {\n\n      require(msg.sender == patients[msg.sender].client, \"Is a client\");\n      require(_index > 0, \"Valid index number passed\");\n      //require(_index == medicalreports[msg.sender].index, \"Correct Index number passed.\");\n\n      //medicalreports[patient].docname = _docname;\n      //medicalreports[patient].docpath =  _docpath;\n      //medicalreports[patient].docdesp =  _docdesp;\n      //medicalreports[patient].isActive = _isActive;\n\n  }*/\n\n  function kill() public {\n    require(msg.sender == owner);\n    selfdestruct(msg.sender);\n  }\n\n\n\n\n}\n",
  "sourcePath": "C:\\xampp\\htdocs\\BLOCKCHAIN\\Blockchain-EMR\\contracts\\EMR.sol",
  "compiler": {
    "name": "solc",
    "version": "0.4.24+commit.e67f0147.Emscripten.clang"
  },
  "schemaVersion": "2.0.1",
  "updatedAt": "2018-09-26T19:50:49.420Z"
}