{
  "contractName": "EMRContract",
  "abi": [
    {
      "constant": true,
      "inputs": [
        {
          "name": "",
          "type": "address"
        }
      ],
      "name": "patients",
      "outputs": [
        {
          "name": "client",
          "type": "address"
        },
        {
          "name": "fullname",
          "type": "string"
        },
        {
          "name": "dob",
          "type": "string"
        },
        {
          "name": "sex",
          "type": "uint8"
        },
        {
          "name": "marital",
          "type": "uint8"
        },
        {
          "name": "email",
          "type": "string"
        }
      ],
      "payable": false,
      "stateMutability": "view",
      "type": "function"
    },
    {
      "constant": true,
      "inputs": [
        {
          "name": "",
          "type": "uint256"
        }
      ],
      "name": "appointments",
      "outputs": [
        {
          "name": "index",
          "type": "uint256"
        },
        {
          "name": "patient",
          "type": "address"
        },
        {
          "name": "datetime",
          "type": "uint256"
        },
        {
          "name": "stat",
          "type": "uint8"
        },
        {
          "name": "remark",
          "type": "string"
        }
      ],
      "payable": false,
      "stateMutability": "view",
      "type": "function"
    },
    {
      "constant": true,
      "inputs": [],
      "name": "MedicalReportIndex",
      "outputs": [
        {
          "name": "",
          "type": "uint256"
        }
      ],
      "payable": false,
      "stateMutability": "view",
      "type": "function"
    },
    {
      "constant": true,
      "inputs": [],
      "name": "version",
      "outputs": [
        {
          "name": "",
          "type": "string"
        }
      ],
      "payable": false,
      "stateMutability": "view",
      "type": "function"
    },
    {
      "constant": true,
      "inputs": [],
      "name": "owner",
      "outputs": [
        {
          "name": "",
          "type": "address"
        }
      ],
      "payable": false,
      "stateMutability": "view",
      "type": "function"
    },
    {
      "constant": true,
      "inputs": [],
      "name": "AppointmentIndex",
      "outputs": [
        {
          "name": "",
          "type": "uint256"
        }
      ],
      "payable": false,
      "stateMutability": "view",
      "type": "function"
    },
    {
      "constant": true,
      "inputs": [
        {
          "name": "",
          "type": "uint256"
        }
      ],
      "name": "medicalreports",
      "outputs": [
        {
          "name": "docname",
          "type": "string"
        },
        {
          "name": "docpath",
          "type": "string"
        },
        {
          "name": "docdesp",
          "type": "string"
        },
        {
          "name": "isActive",
          "type": "bool"
        }
      ],
      "payable": false,
      "stateMutability": "view",
      "type": "function"
    },
    {
      "constant": true,
      "inputs": [
        {
          "name": "",
          "type": "address"
        }
      ],
      "name": "administrator",
      "outputs": [
        {
          "name": "",
          "type": "bool"
        }
      ],
      "payable": false,
      "stateMutability": "view",
      "type": "function"
    },
    {
      "inputs": [],
      "payable": false,
      "stateMutability": "nonpayable",
      "type": "constructor"
    },
    {
      "anonymous": false,
      "inputs": [
        {
          "indexed": true,
          "name": "index",
          "type": "uint256"
        },
        {
          "indexed": false,
          "name": "sender",
          "type": "address"
        }
      ],
      "name": "eAppointmentAdd",
      "type": "event"
    },
    {
      "anonymous": false,
      "inputs": [
        {
          "indexed": true,
          "name": "index",
          "type": "uint256"
        },
        {
          "indexed": false,
          "name": "sender",
          "type": "address"
        }
      ],
      "name": "eAppointmentUpdate",
      "type": "event"
    },
    {
      "constant": false,
      "inputs": [
        {
          "name": "_version",
          "type": "string"
        }
      ],
      "name": "UpdateVersion",
      "outputs": [],
      "payable": false,
      "stateMutability": "nonpayable",
      "type": "function"
    },
    {
      "constant": false,
      "inputs": [
        {
          "name": "_admin",
          "type": "address"
        }
      ],
      "name": "SetAdministrator",
      "outputs": [],
      "payable": false,
      "stateMutability": "nonpayable",
      "type": "function"
    },
    {
      "constant": false,
      "inputs": [
        {
          "name": "_fullname",
          "type": "string"
        },
        {
          "name": "_dob",
          "type": "string"
        },
        {
          "name": "_sex",
          "type": "uint8"
        },
        {
          "name": "_marital",
          "type": "uint8"
        },
        {
          "name": "_email",
          "type": "string"
        },
        {
          "name": "_medicalreport",
          "type": "uint256[]"
        }
      ],
      "name": "SignupPatient",
      "outputs": [],
      "payable": false,
      "stateMutability": "nonpayable",
      "type": "function"
    },
    {
      "constant": false,
      "inputs": [
        {
          "name": "_fullname",
          "type": "string"
        },
        {
          "name": "_dob",
          "type": "string"
        },
        {
          "name": "_sex",
          "type": "uint8"
        },
        {
          "name": "_marital",
          "type": "uint8"
        },
        {
          "name": "_email",
          "type": "string"
        }
      ],
      "name": "PatientUpdate",
      "outputs": [],
      "payable": false,
      "stateMutability": "nonpayable",
      "type": "function"
    },
    {
      "constant": false,
      "inputs": [
        {
          "name": "_datetime",
          "type": "uint256"
        },
        {
          "name": "_stat",
          "type": "uint8"
        },
        {
          "name": "_remark",
          "type": "string"
        }
      ],
      "name": "AppointmentAdd",
      "outputs": [],
      "payable": false,
      "stateMutability": "nonpayable",
      "type": "function"
    },
    {
      "constant": false,
      "inputs": [
        {
          "name": "_AppointmentIndex",
          "type": "uint256"
        },
        {
          "name": "_stat",
          "type": "uint8"
        }
      ],
      "name": "AppointmentUpdate",
      "outputs": [],
      "payable": false,
      "stateMutability": "nonpayable",
      "type": "function"
    },
    {
      "constant": true,
      "inputs": [],
      "name": "AppointmentGet",
      "outputs": [
        {
          "name": "",
          "type": "uint256[]"
        }
      ],
      "payable": false,
      "stateMutability": "view",
      "type": "function"
    },
    {
      "constant": false,
      "inputs": [
        {
          "name": "_docname",
          "type": "string"
        },
        {
          "name": "_docpath",
          "type": "string"
        },
        {
          "name": "_docdesp",
          "type": "string"
        }
      ],
      "name": "MedicalReportAdd",
      "outputs": [],
      "payable": false,
      "stateMutability": "nonpayable",
      "type": "function"
    },
    {
      "constant": true,
      "inputs": [
        {
          "name": "_addr",
          "type": "address"
        }
      ],
      "name": "MedicalReportGet",
      "outputs": [
        {
          "name": "",
          "type": "uint256[]"
        }
      ],
      "payable": false,
      "stateMutability": "view",
      "type": "function"
    },
    {
      "constant": false,
      "inputs": [],
      "name": "kill",
      "outputs": [],
      "payable": false,
      "stateMutability": "nonpayable",
      "type": "function"
    }
  ],
  "bytecode": "0x60806040526040805190810160405280600581526020017f302e302e310000000000000000000000000000000000000000000000000000008152506007908051906020019062000051929190620000ff565b503480156200005f57600080fd5b5033600660006101000a81548173ffffffffffffffffffffffffffffffffffffffff021916908373ffffffffffffffffffffffffffffffffffffffff1602179055506001600260003373ffffffffffffffffffffffffffffffffffffffff1673ffffffffffffffffffffffffffffffffffffffff16815260200190815260200160002060006101000a81548160ff021916908315150217905550620001ae565b828054600181600116156101000203166002900490600052602060002090601f016020900481019282601f106200014257805160ff191683800117855562000173565b8280016001018555821562000173579182015b828111156200017257825182559160200191906001019062000155565b5b50905062000182919062000186565b5090565b620001ab91905b80821115620001a75760008160009055506001016200018d565b5090565b90565b61227b80620001be6000396000f3006080604052600436106100fc576000357c0100000000000000000000000000000000000000000000000000000000900463ffffffff168063021be28c146101015780630869cfbc1461013b57806312dc90131461032c5780632018ff151461042857806321ad6c3a1461046b57806341c0e1b51461057a5780634c32abbf1461059157806354fd4d50146105bc5780635e9881161461064c57806363fe51a9146106b85780638da5cb5b14610738578063925755ff1461078f5780639cdf8e8214610884578063c96e8304146108af578063d22a225514610918578063e1d1721814610aa1578063f4fe9fad14610b39578063f7b2b0ca14610b94575b600080fd5b34801561010d57600080fd5b5061013960048036038101908080359060200190929190803560ff169060200190929190505050610ce6565b005b34801561014757600080fd5b5061017c600480360381019080803573ffffffffffffffffffffffffffffffffffffffff169060200190929190505050610e9b565b604051808773ffffffffffffffffffffffffffffffffffffffff1673ffffffffffffffffffffffffffffffffffffffff16815260200180602001806020018660018111156101c657fe5b60ff1681526020018560058111156101da57fe5b60ff16815260200180602001848103845289818151815260200191508051906020019080838360005b8381101561021e578082015181840152602081019050610203565b50505050905090810190601f16801561024b5780820380516001836020036101000a031916815260200191505b50848103835288818151815260200191508051906020019080838360005b83811015610284578082015181840152602081019050610269565b50505050905090810190601f1680156102b15780820380516001836020036101000a031916815260200191505b50848103825285818151815260200191508051906020019080838360005b838110156102ea5780820151818401526020810190506102cf565b50505050905090810190601f1680156103175780820380516001836020036101000a031916815260200191505b50995050505050505050505060405180910390f35b34801561033857600080fd5b50610357600480360381019080803590602001909291905050506110d9565b604051808681526020018573ffffffffffffffffffffffffffffffffffffffff1673ffffffffffffffffffffffffffffffffffffffff1681526020018481526020018360048111156103a557fe5b60ff16815260200180602001828103825283818151815260200191508051906020019080838360005b838110156103e95780820151818401526020810190506103ce565b50505050905090810190601f1680156104165780820380516001836020036101000a031916815260200191505b50965050505050505060405180910390f35b34801561043457600080fd5b50610469600480360381019080803573ffffffffffffffffffffffffffffffffffffffff1690602001909291905050506111d4565b005b34801561047757600080fd5b50610578600480360381019080803590602001908201803590602001908080601f0160208091040260200160405190810160405280939291908181526020018383808284378201915050505050509192919290803590602001908201803590602001908080601f0160208091040260200160405190810160405280939291908181526020018383808284378201915050505050509192919290803560ff169060200190929190803560ff169060200190929190803590602001908201803590602001908080601f01602080910402602001604051908101604052809392919081815260200183838082843782019150505050505091929192905050506112e4565b005b34801561058657600080fd5b5061058f61154c565b005b34801561059d57600080fd5b506105a66115c1565b6040518082815260200191505060405180910390f35b3480156105c857600080fd5b506105d16115c7565b6040518080602001828103825283818151815260200191508051906020019080838360005b838110156106115780820151818401526020810190506105f6565b50505050905090810190601f16801561063e5780820380516001836020036101000a031916815260200191505b509250505060405180910390f35b34801561065857600080fd5b50610661611665565b6040518080602001828103825283818151815260200191508051906020019060200280838360005b838110156106a4578082015181840152602081019050610689565b505050509050019250505060405180910390f35b3480156106c457600080fd5b5061073660048036038101908080359060200190929190803560ff169060200190929190803590602001908201803590602001908080601f0160208091040260200160405190810160405280939291908181526020018383808284378201915050505050509192919290505050611721565b005b34801561074457600080fd5b5061074d61194b565b604051808273ffffffffffffffffffffffffffffffffffffffff1673ffffffffffffffffffffffffffffffffffffffff16815260200191505060405180910390f35b34801561079b57600080fd5b50610882600480360381019080803590602001908201803590602001908080601f0160208091040260200160405190810160405280939291908181526020018383808284378201915050505050509192919290803590602001908201803590602001908080601f0160208091040260200160405190810160405280939291908181526020018383808284378201915050505050509192919290803590602001908201803590602001908080601f0160208091040260200160405190810160405280939291908181526020018383808284378201915050505050509192919290505050611971565b005b34801561089057600080fd5b50610899611bad565b6040518082815260200191505060405180910390f35b3480156108bb57600080fd5b50610916600480360381019080803590602001908201803590602001908080601f0160208091040260200160405190810160405280939291908181526020018383808284378201915050505050509192919290505050611bb3565b005b34801561092457600080fd5b5061094360048036038101908080359060200190929190505050611bcd565b6040518080602001806020018060200185151515158152602001848103845288818151815260200191508051906020019080838360005b8381101561099557808201518184015260208101905061097a565b50505050905090810190601f1680156109c25780820380516001836020036101000a031916815260200191505b50848103835287818151815260200191508051906020019080838360005b838110156109fb5780820151818401526020810190506109e0565b50505050905090810190601f168015610a285780820380516001836020036101000a031916815260200191505b50848103825286818151815260200191508051906020019080838360005b83811015610a61578082015181840152602081019050610a46565b50505050905090810190601f168015610a8e5780820380516001836020036101000a031916815260200191505b5097505050505050505060405180910390f35b348015610aad57600080fd5b50610ae2600480360381019080803573ffffffffffffffffffffffffffffffffffffffff169060200190929190505050611dd2565b6040518080602001828103825283818151815260200191508051906020019060200280838360005b83811015610b25578082015181840152602081019050610b0a565b505050509050019250505060405180910390f35b348015610b4557600080fd5b50610b7a600480360381019080803573ffffffffffffffffffffffffffffffffffffffff169060200190929190505050611e6b565b604051808215151515815260200191505060405180910390f35b348015610ba057600080fd5b50610ce4600480360381019080803590602001908201803590602001908080601f0160208091040260200160405190810160405280939291908181526020018383808284378201915050505050509192919290803590602001908201803590602001908080601f0160208091040260200160405190810160405280939291908181526020018383808284378201915050505050509192919290803560ff169060200190929190803560ff169060200190929190803590602001908201803590602001908080601f016020809104026020016040519081016040528093929190818152602001838380828437820191505050505050919291929080359060200190820180359060200190808060200260200160405190810160405280939291908181526020018383602002808284378201915050505050509192919290505050611e8b565b005b60011515600260003373ffffffffffffffffffffffffffffffffffffffff1673ffffffffffffffffffffffffffffffffffffffff16815260200190815260200160002060009054906101000a900460ff1615151480610dd157506000803373ffffffffffffffffffffffffffffffffffffffff1673ffffffffffffffffffffffffffffffffffffffff16815260200190815260200160002060000160009054906101000a900473ffffffffffffffffffffffffffffffffffffffff1673ffffffffffffffffffffffffffffffffffffffff163373ffffffffffffffffffffffffffffffffffffffff16145b1515610ddc57600080fd5b600082111515610deb57600080fd5b6004548211151515610dfc57600080fd5b806001600084815260200190815260200160002060030160006101000a81548160ff02191690836004811115610e2e57fe5b0217905550817faed36e024505e25c12abbd5805f9a03e43edc723e22f4f50bb4f14a6e9ef1ada33604051808273ffffffffffffffffffffffffffffffffffffffff1673ffffffffffffffffffffffffffffffffffffffff16815260200191505060405180910390a25050565b60006020528060005260406000206000915090508060000160009054906101000a900473ffffffffffffffffffffffffffffffffffffffff1690806001018054600181600116156101000203166002900480601f016020809104026020016040519081016040528092919081815260200182805460018160011615610100020316600290048015610f6d5780601f10610f4257610100808354040283529160200191610f6d565b820191906000526020600020905b815481529060010190602001808311610f5057829003601f168201915b505050505090806002018054600181600116156101000203166002900480601f01602080910402602001604051908101604052809291908181526020018280546001816001161561010002031660029004801561100b5780601f10610fe05761010080835404028352916020019161100b565b820191906000526020600020905b815481529060010190602001808311610fee57829003601f168201915b5050505050908060030160009054906101000a900460ff16908060030160019054906101000a900460ff1690806004018054600181600116156101000203166002900480601f0160208091040260200160405190810160405280929190818152602001828054600181600116156101000203166002900480156110cf5780601f106110a4576101008083540402835291602001916110cf565b820191906000526020600020905b8154815290600101906020018083116110b257829003601f168201915b5050505050905086565b60016020528060005260406000206000915090508060000154908060010160009054906101000a900473ffffffffffffffffffffffffffffffffffffffff16908060020154908060030160009054906101000a900460ff1690806004018054600181600116156101000203166002900480601f0160208091040260200160405190810160405280929190818152602001828054600181600116156101000203166002900480156111ca5780601f1061119f576101008083540402835291602001916111ca565b820191906000526020600020905b8154815290600101906020018083116111ad57829003601f168201915b5050505050905085565b600660009054906101000a900473ffffffffffffffffffffffffffffffffffffffff1673ffffffffffffffffffffffffffffffffffffffff163373ffffffffffffffffffffffffffffffffffffffff1614151561123057600080fd5b600260008273ffffffffffffffffffffffffffffffffffffffff1673ffffffffffffffffffffffffffffffffffffffff16815260200190815260200160002060009054906101000a900460ff1615151561128957600080fd5b6001600260008373ffffffffffffffffffffffffffffffffffffffff1673ffffffffffffffffffffffffffffffffffffffff16815260200190815260200160002060006101000a81548160ff02191690831515021790555050565b6000803373ffffffffffffffffffffffffffffffffffffffff1673ffffffffffffffffffffffffffffffffffffffff16815260200190815260200160002060000160009054906101000a900473ffffffffffffffffffffffffffffffffffffffff1673ffffffffffffffffffffffffffffffffffffffff163373ffffffffffffffffffffffffffffffffffffffff1614151561137f57600080fd5b846000803373ffffffffffffffffffffffffffffffffffffffff1673ffffffffffffffffffffffffffffffffffffffff16815260200190815260200160002060010190805190602001906113d49291906120dd565b50836000803373ffffffffffffffffffffffffffffffffffffffff1673ffffffffffffffffffffffffffffffffffffffff168152602001908152602001600020600201908051906020019061142a9291906120dd565b50826000803373ffffffffffffffffffffffffffffffffffffffff1673ffffffffffffffffffffffffffffffffffffffff16815260200190815260200160002060030160006101000a81548160ff0219169083600181111561148857fe5b0217905550816000803373ffffffffffffffffffffffffffffffffffffffff1673ffffffffffffffffffffffffffffffffffffffff16815260200190815260200160002060030160016101000a81548160ff021916908360058111156114ea57fe5b0217905550806000803373ffffffffffffffffffffffffffffffffffffffff1673ffffffffffffffffffffffffffffffffffffffff16815260200190815260200160002060040190805190602001906115449291906120dd565b505050505050565b600660009054906101000a900473ffffffffffffffffffffffffffffffffffffffff1673ffffffffffffffffffffffffffffffffffffffff163373ffffffffffffffffffffffffffffffffffffffff161415156115a857600080fd5b3373ffffffffffffffffffffffffffffffffffffffff16ff5b60055481565b60078054600181600116156101000203166002900480601f01602080910402602001604051908101604052809291908181526020018280546001816001161561010002031660029004801561165d5780601f106116325761010080835404028352916020019161165d565b820191906000526020600020905b81548152906001019060200180831161164057829003601f168201915b505050505081565b606080600080600190505b60045481111515611718573373ffffffffffffffffffffffffffffffffffffffff166001600083815260200190815260200160002060010160009054906101000a900473ffffffffffffffffffffffffffffffffffffffff1673ffffffffffffffffffffffffffffffffffffffff16141561170b578083838151811015156116f457fe5b906020019060200201818152505081806001019250505b8080600101915050611670565b82935050505090565b6000803373ffffffffffffffffffffffffffffffffffffffff1673ffffffffffffffffffffffffffffffffffffffff16815260200190815260200160002060000160009054906101000a900473ffffffffffffffffffffffffffffffffffffffff1673ffffffffffffffffffffffffffffffffffffffff163373ffffffffffffffffffffffffffffffffffffffff161415156117bc57600080fd5b42831115156117ca57600080fd5b60046000815480929190600101919050555060a06040519081016040528060045481526020013373ffffffffffffffffffffffffffffffffffffffff16815260200184815260200183600481111561181e57fe5b8152602001828152506001600060045481526020019081526020016000206000820151816000015560208201518160010160006101000a81548173ffffffffffffffffffffffffffffffffffffffff021916908373ffffffffffffffffffffffffffffffffffffffff1602179055506040820151816002015560608201518160030160006101000a81548160ff021916908360048111156118bb57fe5b021790555060808201518160040190805190602001906118dc92919061215d565b509050506004547f11bc75e1c881a356fd788845fca53e42abfc6d0fcf1f28e90fc6b518d4163e1733604051808273ffffffffffffffffffffffffffffffffffffffff1673ffffffffffffffffffffffffffffffffffffffff16815260200191505060405180910390a2505050565b600660009054906101000a900473ffffffffffffffffffffffffffffffffffffffff1681565b6000803373ffffffffffffffffffffffffffffffffffffffff1673ffffffffffffffffffffffffffffffffffffffff16815260200190815260200160002060000160009054906101000a900473ffffffffffffffffffffffffffffffffffffffff1673ffffffffffffffffffffffffffffffffffffffff163373ffffffffffffffffffffffffffffffffffffffff16141515611a75576040517f08c379a000000000000000000000000000000000000000000000000000000000815260040180806020018281038252601a8152602001807f53656e6465722068617320746f20626520612070617469656e7400000000000081525060200191505060405180910390fd5b600560008154809291906001019190505550608060405190810160405280848152602001838152602001828152602001600115158152506003600060055481526020019081526020016000206000820151816000019080519060200190611add92919061215d565b506020820151816001019080519060200190611afa92919061215d565b506040820151816002019080519060200190611b1792919061215d565b5060608201518160030160006101000a81548160ff0219169083151502179055509050506000803373ffffffffffffffffffffffffffffffffffffffff1673ffffffffffffffffffffffffffffffffffffffff1681526020019081526020016000206005016005549080600181540180825580915050906001820390600052602060002001600090919290919091505550505050565b60045481565b8060079080519060200190611bc99291906120dd565b5050565b6003602052806000526040600020600091509050806000018054600181600116156101000203166002900480601f016020809104026020016040519081016040528092919081815260200182805460018160011615610100020316600290048015611c795780601f10611c4e57610100808354040283529160200191611c79565b820191906000526020600020905b815481529060010190602001808311611c5c57829003601f168201915b505050505090806001018054600181600116156101000203166002900480601f016020809104026020016040519081016040528092919081815260200182805460018160011615610100020316600290048015611d175780601f10611cec57610100808354040283529160200191611d17565b820191906000526020600020905b815481529060010190602001808311611cfa57829003601f168201915b505050505090806002018054600181600116156101000203166002900480601f016020809104026020016040519081016040528092919081815260200182805460018160011615610100020316600290048015611db55780601f10611d8a57610100808354040283529160200191611db5565b820191906000526020600020905b815481529060010190602001808311611d9857829003601f168201915b5050505050908060030160009054906101000a900460ff16905084565b60606000808373ffffffffffffffffffffffffffffffffffffffff1673ffffffffffffffffffffffffffffffffffffffff168152602001908152602001600020600501805480602002602001604051908101604052809291908181526020018280548015611e5f57602002820191906000526020600020905b815481526020019060010190808311611e4b575b50505050509050919050565b60026020528060005260406000206000915054906101000a900460ff1681565b6000803373ffffffffffffffffffffffffffffffffffffffff1673ffffffffffffffffffffffffffffffffffffffff16815260200190815260200160002060000160009054906101000a900473ffffffffffffffffffffffffffffffffffffffff1673ffffffffffffffffffffffffffffffffffffffff163373ffffffffffffffffffffffffffffffffffffffff1614151515611f2757600080fd5b60e0604051908101604052803373ffffffffffffffffffffffffffffffffffffffff168152602001878152602001868152602001856001811115611f6757fe5b8152602001846005811115611f7857fe5b8152602001838152602001828152506000803373ffffffffffffffffffffffffffffffffffffffff1673ffffffffffffffffffffffffffffffffffffffff16815260200190815260200160002060008201518160000160006101000a81548173ffffffffffffffffffffffffffffffffffffffff021916908373ffffffffffffffffffffffffffffffffffffffff160217905550602082015181600101908051906020019061202892919061215d565b50604082015181600201908051906020019061204592919061215d565b5060608201518160030160006101000a81548160ff0219169083600181111561206a57fe5b021790555060808201518160030160016101000a81548160ff0219169083600581111561209357fe5b021790555060a08201518160040190805190602001906120b492919061215d565b5060c08201518160050190805190602001906120d19291906121dd565b50905050505050505050565b828054600181600116156101000203166002900490600052602060002090601f016020900481019282601f1061211e57805160ff191683800117855561214c565b8280016001018555821561214c579182015b8281111561214b578251825591602001919060010190612130565b5b509050612159919061222a565b5090565b828054600181600116156101000203166002900490600052602060002090601f016020900481019282601f1061219e57805160ff19168380011785556121cc565b828001600101855582156121cc579182015b828111156121cb5782518255916020019190600101906121b0565b5b5090506121d9919061222a565b5090565b828054828255906000526020600020908101928215612219579160200282015b828111156122185782518255916020019190600101906121fd565b5b509050612226919061222a565b5090565b61224c91905b80821115612248576000816000905550600101612230565b5090565b905600a165627a7a7230582043cce2abee7398b87d4a56cc99f40fcdc2ffcd5553845ed1ba593c673132ec610029",
  "source": "pragma solidity ^0.4.23;\n\ncontract EMRContract {\n\n  enum SexType { MALE, FEMALE }\n  enum MaritalType { single, married, remarried, separated, divorced, widowed }\n  enum AppointmentStat { CREATED, APPROVED, REJECTED, BILLING, CLOSE }\n\n  struct Patient {\n    address client;\n    string fullname;\n    string dob;\n    SexType sex;\n    MaritalType marital;\n    string email;\n    uint256[] medicalreport;\n  }\n\n  struct Appointment{\n    uint256 index;\n    address patient;\n    uint256 datetime;\n    AppointmentStat stat;\n    string remark;\n  }\n\n  struct MedicalReport{\n    string docname;\n    string docpath;\n    string docdesp;\n    bool isActive;\n  }\n  \n  mapping(address => Patient) public patients;\n\n  mapping(uint256 => Appointment) public appointments;\n  mapping(address => bool) public administrator;\n\n  mapping(uint256 => MedicalReport) public medicalreports;\n\n  uint256 public AppointmentIndex;\n  uint256 public MedicalReportIndex;\n\n  address public owner;\n  \n  \n  string public version = \"0.0.1\";\n\n  event eAppointmentAdd(uint256 indexed index, address sender);\n\n  event eAppointmentUpdate(uint256 indexed index, address sender);\n\n\n  modifier isOwner() {\n    if (msg.sender == owner) _;\n  }\n\n  modifier isAdministrator(address _admin) {\n    if (administrator[_admin] == true) _;\n  }\n\n  constructor() public {\n    owner = msg.sender;\n    administrator[msg.sender] = true;\n  }\n\n  function UpdateVersion (string _version) public {\n    version = _version;\n  }\n\n  function SetAdministrator (address _admin) public {\n    require(msg.sender == owner);\n    require(!administrator[_admin]);\n\n    administrator[_admin] = true;\n  }\n\n  /*\n  * Sign Up Patients\n  */\n\n  function SignupPatient(string _fullname,\n      string _dob,\n      SexType _sex,\n      MaritalType _marital,\n      string _email,\n      uint256[] _medicalreport) public {\n\n    require(msg.sender != patients[msg.sender].client);\n\n    patients[msg.sender] = Patient(msg.sender, \n      _fullname, \n      _dob, \n      _sex, \n      _marital, \n      _email, \n      _medicalreport);\n\n  }\n\n\n  function PatientUpdate(string _fullname,\n      string _dob,\n      SexType _sex,\n      MaritalType _marital,\n      string _email) public {\n\n    require(msg.sender == patients[msg.sender].client);\n\n    patients[msg.sender].fullname = _fullname;\n    patients[msg.sender].dob = _dob;\n    patients[msg.sender].sex = _sex;\n    patients[msg.sender].marital = _marital;\n    patients[msg.sender].email = _email;\n\n  }\n\n  \n  function AppointmentAdd(uint256 _datetime, \n    AppointmentStat _stat, string _remark) public {\n    \n    require(msg.sender == patients[msg.sender].client);\n    require(_datetime > now);\n    \n    AppointmentIndex++;\n\n    appointments[AppointmentIndex] = Appointment(AppointmentIndex,\n      msg.sender,\n      _datetime,\n      _stat,\n      _remark);\n\n    emit eAppointmentAdd(AppointmentIndex, msg.sender);\n\n  }\n\n  function AppointmentUpdate(uint256 _AppointmentIndex, \n    AppointmentStat _stat) public {\n\n    require(administrator[msg.sender] == true || msg.sender == patients[msg.sender].client);\n    require(_AppointmentIndex > 0);\n    require(_AppointmentIndex <= AppointmentIndex);\n\n    appointments[_AppointmentIndex].stat = _stat;\n    //appointments[_AppointmentIndex].remark = _remark;\n\n    emit eAppointmentUpdate(_AppointmentIndex, msg.sender);\n\n  }\n\n  function AppointmentGet() public view returns (uint256[]){\n    uint256[] memory results;\n    uint256 count;\n    for (uint256 i = 1; i <= AppointmentIndex; i++) {\n        if(appointments[i].patient == msg.sender)\n        {\n          //results.push(appointments[i].index);\n          results[count] = i;\n          count++;\n        }\n    }\n    return results;\n  }\n\n\n  function MedicalReportAdd(string _docname,\n    string _docpath,\n    string _docdesp) public {\n\n      require(msg.sender == patients[msg.sender].client, \"Sender has to be a patient\");\n\n      MedicalReportIndex++;\n      medicalreports[MedicalReportIndex] = MedicalReport(_docname, \n        _docpath, \n        _docdesp, \n        true);\n\n      patients[msg.sender].medicalreport.push(MedicalReportIndex);\n\n  }\n\n  function MedicalReportGet(address _addr) public view returns(uint256[]){\n    return patients[_addr].medicalreport;\n  }\n\n \n\n  function kill() public {\n    require(msg.sender == owner);\n    selfdestruct(msg.sender);\n  }\n\n\n\n\n}\n",
  "sourcePath": "C:\\xampp\\htdocs\\BLOCKCHAIN\\Blockchain-EMR\\contracts\\EMRContract.sol",
  "compiler": {
    "name": "solc",
    "version": "0.4.24+commit.e67f0147.Emscripten.clang"
  },
  "schemaVersion": "2.0.1",
  "updatedAt": "2018-09-30T16:05:52.962Z"
}